S00D00004C616262352E7372656371
S11300000C942E000C9415050C9484050C94F305A3
S11300100C9462060C94D1060C944B000C943C0D89
S11300200C944B000C94EA0C0C9440070C94AF070E
S11300300C941E080C948D080C94FC080C946B0909
S11300400C94DA090C94490A0C94B80A0C94270B02
S11300500C94960B0C94050C0C94740C11241FBE78
S1130060CFEFD4E0DEBFCDBF11E0A0E0B1E0E4EE1D
S1130070F0E202C005900D92AC35B107D9F724E047
S1130080ACE5B1E001C01D92A73BB207E1F70E94C5
S11300905F030C9470100C940000CF92DF92EF92E7
S11300A0FF920F931F93CF93DF9300D000D0CDB76F
S11300B0DEB7FC0124813581215031093583248345
S11300C082E090E09A8389833C832B8300851185A9
S11300D0CE0101966C010F2EF1EAEF2EF2E0FF2E15
S11300E0F02D20E030E0A90160E070E0CB010E9437
S11300F0DC0D0F900F900F900F90DF91CF911F9117
S11301000F91FF90EF90DF90CF900895AF92BF9240
S1130110CF92DF92EF92FF920F931F93CF93DF93CF
S113012000D000D0CDB7DEB75C01FC01848195819D
S1130130019695838483A681B78122E13AE70E94E0
S11301400510C12CD12C0F2EFDE4EF2EF0E0FF2E74
S1130150F02D850120E030E0A9010E94DC0D82E051
S113016090E09A838983F501848195819C838B83B4
S113017000851185CE0101966C010F2EF1EAEF2E58
S1130180F2E0FF2EF02D20E030E0A90160E070E005
S1130190CB010E94DC0D0F900F900F900F90DF9118
S11301A0CF911F910F91FF90EF90DF90CF90BF9070
S11301B0AF900895AF92BF92CF92DF92EF92FF92E9
S11301C00F931F93CF93DF9300D000D0CDB7DEB74A
S11301D05C01FC0186819781892B09F442C08481EA
S11301E09581181619060CF03FC0019795838483F6
S11301F004851585C12CD12C0F2EF6E8EF2EF0E0E6
S1130200FF2EF02D20E030E0A90160E070E0CB018A
S11302100E94DC0DF50180859185880F991F880F58
S1130220991F9A838983848195819C838B83028916
S11302301389CE0101966C010F2EF1EAEF2EF2E044
S1130240FF2EF02D20E030E0A90160E070E0CB014A
S11302500E94DC0DF5018285938501969387828740
S113026003C0F50113861286F501828593850B97E9
S113027034F106851785C084D1840F2EF8EDEF2E56
S1130280F1E0FF2EF02D20E030E0A90160E070E005
S1130290CB010E94DC0DC12CD12C0F2EF0E8EF2EE7
S11302A0F1E0FF2EF02D850120E030E0A90160E0AF
S11302B070E0CB010E94DC0DF50113861286C12C7F
S11302C0D12C0F2EFAEDEF2EF0E0FF2EF02D85014C
S11302D020E030E0A90162E17AE780E090E00E944A
S11302E0DC0D0F900F900F900F90DF91CF911F9125
S11302F00F91FF90EF90DF90CF90BF90AF90089553
S1130300CF92DF92EF92FF920F931F93FC0117821B
S1130310168220853185220F331F0089118982E0DE
S113032090E06C0102C0CC0CDD1C2A95E2F70F2E84
S1130330FAE8EF2EF3E0FF2EF02D20E030E0A901E3
S113034060E070E0CB010E94DC0D1F910F91FF90E3
S1130350EF90DF90CF900895CF92DF92EF92FF92CB
S11303600F931F93FC0121E030E0378326834085FF
S11303705185440F551F00891189690102C0CC0CB5
S1130380DD1C4A95E2F70F2EFAE8EF2EF3E0FF2E7C
S1130390F02D20E030E0A90160E070E0CB010E9484
S11303A0DC0D1F910F91FF90EF90DF90CF90089597
S11303B0AF92BF92CF92DF92EF92FF920F931F936F
S11303C0CF93DF935C01EB0161307105F9F4FC011B
S11303D006811781F8018481958118161906B4F4F1
S11303E0C12CD12C0F2EFCEAEF2EF1E0FF2EF02DC4
S11303F020E030E0A9016AE572E682E090E00E9424
S1130400DC0DF5018681978193878287CD2BF9F4E2
S1130410F50100851185F801848195811816190666
S1130420B4F4C12CD12C0F2EFCEAEF2EF1E0FF2EF8
S1130430F02D20E030E0A9016AE572E682E090E068
S11304400E94DC0DF5018085918593878287DF9179
S1130450CF911F910F91FF90EF90DF90CF90BF90BD
S1130460AF900895FC017783668351874087089590
S1130470CF92DF92EF92FF920F931F93CF93DF936C
S1130480EC010E811F81C12CD12C0F2EFAEDEF2E21
S1130490F0E0FF2EF02D20E030E0A90160E070E0F4
S11304A0CB010E94DC0D0885198520E030E0A9010C
S11304B060E070E0CB010E94DC0DDF91CF911F91D1
S11304C00F91FF90EF90DF90CF9008954630510543
S11304D0B8F56A3048F4E62FF0E0EE0FFF1FE05065
S11304E0FF4F6081718102C060E070E040FF03C093
S11304F0AFE0B4E002C0A0EFB0E055954795FA0133
S1130500E451FF4F20E030E018C0862F8F7090E058
S11305100B2E02C0880F991F0A94E2F790819A2348
S1130520892B8083759567957595679575956795FE
S11305307595679535962F5F3F4F243031052CF321
S11305400895CF92DF92EF92FF920F931F93CF9370
S1130550DF938C01FB01C081D181C280D380C601AD
S113056064E670E00E94F10F0F2EFAE0EF2EF12CFA
S1130570F02DB7010E94F10FAE01C8010E9466027E
S11305802196C601B7010E94F10FAE01682FC80180
S11305900E946602DF91CF911F910F91FF90EF901F
S11305A0DF90CF9008950F931F93CF93DF93CDB730
S11305B0DEB72C970FB6F894DEBF0FBECDBF8C010B
S11305C0E4EEF0E080818068808387EB8093E5002F
S11305D0E7EEF0E080818F60808387E08093E6001F
S11305E085B1806D85B98EB18C608EB98FE284B986
S11305F080E58DB990EC9DBB8CE080936B0080ED21
S113060080936C0088E18093C10090938000809374
S1130610810010926400E1E6F0E080E880831082BB
S11306201A8219821C821B8284E090E09E838D834F
S113063018861F8282E090E09A8789871C861B8631
S1130640BE016F5F7F4FC8010E94A102BE016B5FB4
S11306507F4FC8010E94A102BE01675F7F4FC8019E
S11306600E94A1022C960FB6F894DEBF0FBECDBF38
S1130670DF91CF911F910F910895CF93DF9300D015
S113068000D0CDB7DEB79C019091C6009F3F81F4A6
S1130690F9011A82198285E490E09C838B83AE0170
S11306A04F5F5F4F61EA72E0808591850E94E50E9D
S11306B00F900F900F900F90DF91CF91089580ECE1
S11306C08CBB8DBB1092C50083E38093C40088E982
S11306D08093C10086E08093C20044E151E068E267
S11306E071E08CE391E00E94320280E691E00E9486
S11306F0D30248E06DE373E0CB010E94BF0F40E0FA
S113070050E068E372E08CE391E00E94DA0F80E04D
S113071090E008950895CF93DF9300D000D0CDB733
S1130720DEB780E090E018C0AC014F5F5F4F9A01E4
S113073022953295307F3227207F3227295B3D4F27
S113074082959295907F9827807F9827FC01E95B9A
S1130750FD4F31832083CA018E3091052CF3109212
S113076028031092270380E090E015C0AC014F5F8E
S11307705F4F6DE1649F9001659F300D11242E56EB
S11307803E4F689FF001699FF00D1124EE56FE4F15
S113079031832083CA018330910544F31092EA0126
S11307A01092E9011A82198232C02DE149815A81DD
S11307B0249FC001259F900D1124FC01E856FE4F93
S11307C0FC83EB83CF010E942F1020E649815A81DC
S11307D0249FC001259F900D11248D569C4FEB81C1
S11307E0FC81918B808B938B828B87E69FE0968B29
S11307F0858B8DE1849FF001859FF00D1124EE56C9
S1130800FE4F158214824F5F5F4F5A8349832981BB
S11308103A81243031054CF2EAE2F2E0118210828E
S11308201582148213821282E1E6F0E080E880836C
S11308301082109285001092840084E080938100DD
S113084081E080936F000F900F900F900F90DF91D5
S1130850CF910895CF93DF9300D0CDB7DEB79A83BD
S11308608983809154019091550106960E942F101E
S1130870892B59F489819A8190935501809354016D
S113088061E070E006960E944F100F900F90DF9188
S1130890CF9108950F931F93CF93DF93DC01CB0186
S11308A0EB01E881F981C0E0D0E004C0EF010190E0
S11308B0F081E02D309779F006811781208531850C
S11308C016964D915D916D917C9119974017510742
S11308D0620773075CF71196FC93EE93209721F45B
S11308E0FC01B183A08302C0B983A883DF91CF91B7
S11308F01F910F9108950F931F93CF93DF93DC0102
S1130900CB01EB01E881F981C0E0D0E004C0EF0144
S11309100190F081E02D309779F0028113812481D8
S1130920358112964D915D916D917C91159740178B
S11309305107620773075CF71196FC93EE932097B7
S113094021F4FC01B183A08302C0B983A883DF91A1
S1130950CF911F910F910895DC01ED91FC911197B6
S1130960309759F48FEF8093EC008093ED008093DF
S1130970EE0081E083BF8895FCCF208131812D93E7
S11309803C93CF010895FB0120813181FC01318327
S11309902083FB01918380830895FB0120813181B1
S11309A0FC0131832083FB01918380830895DC0162
S11309B0ED91FC911197208131812D933C93CF01CE
S11309C00895CF93DF93E0915601F0915701C281CE
S11309D0D381E0916C01F0916D01309719F1809110
S11309E0580190915901892BE9F0209769F086818B
S11309F09781A085B1854E815F8168857985841B47
S1130A00950BA60BB70B72F488E591E00E94D7040E
S1130A1066E571E00E94CD048091560190915701E2
S1130A200E942A04DF91CF9108951F920F920FB66E
S1130A300F9211240F931F932F933F934F935F9320
S1130A406F937F938F939F93AF93BF93EF93FF9392
S1130A508091640190916501AC01092E000C660B34
S1130A60770B9A011127002740918400509185004B
S1130A7060E070E0402B512B622B732B4093660196
S1130A80509367016093680170936901B09B1AC029
S1130A900196092E000CAA0BBB0BBC015527442759
S1130AA08091840090918500A0E0B0E0842B952B88
S1130AB0A62BB72B8093660190936701A0936801DE
S1130AC0B0936901E0910602F0910702309739F082
S1130AD060E070E080916E0190916F0109950E9431
S1130AE0E104FF91EF91BF91AF919F918F917F911D
S1130AF06F915F914F913F912F911F910F910F90A3
S1130B000FBE0F901F9018951F920F920FB60F9261
S1130B1011240F931F932F933F934F935F936F93DE
S1130B207F938F939F93AF93BF93EF93FF938091A2
S1130B30640190916501AC01092E000C660B770BE2
S1130B409A0111270027409184005091850060E0AC
S1130B5070E0402B512B622B732B40936601509312
S1130B6067016093680170936901B09B1AC0019694
S1130B70092E000CAA0BBB0BBC01552744278091FE
S1130B80840090918500A0E0B0E0842B952BA62BE7
S1130B90B72B8093660190936701A0936801B0938B
S1130BA06901E0910802F0910902309739F061E09F
S1130BB070E0809170019091710109950E94E104A7
S1130BC0FF91EF91BF91AF919F918F917F916F9121
S1130BD05F914F913F912F911F910F910F900FBEF5
S1130BE00F901F9018951F920F920FB60F92112419
S1130BF00F931F932F933F934F935F936F937F9321
S1130C008F939F93AF93BF93EF93FF93809164016E
S1130C1090916501AC01092E000C660B770B9A01CB
S1130C2011270027409184005091850060E070E016
S1130C30402B512B622B732B409366015093670119
S1130C406093680170936901B09B1AC00196092EE4
S1130C50000CAA0BBB0BBC015527442780918400D0
S1130C6090918500A0E0B0E0842B952BA62BB72BA8
S1130C708093660190936701A0936801B093690122
S1130C80E0910A02F0910B02309739F062E070E0D3
S1130C90809172019091730109950E94E104FF9182
S1130CA0EF91BF91AF919F918F917F916F915F91E0
S1130CB04F913F912F911F910F910F900FBE0F9065
S1130CC01F9018951F920F920FB60F9211240F9335
S1130CD01F932F933F934F935F936F937F938F93C0
S1130CE09F93AF93BF93EF93FF938091640190918F
S1130CF06501AC01092E000C660B770B9A011127D4
S1130D000027409184005091850060E070E0402B02
S1130D10512B622B732B40936601509367016093B0
S1130D20680170936901B09B1AC00196092E000CEA
S1130D30AA0BBB0BBC0155274427809184009091DA
S1130D408500A0E0B0E0842B952BA62BB72B8093D5
S1130D50660190936701A0936801B0936901E091E3
S1130D600C02F0910D02309739F063E070E080914D
S1130D7074019091750109950E94E104FF91EF912E
S1130D80BF91AF919F918F917F916F915F914F919F
S1130D903F912F911F910F910F900FBE0F901F90B5
S1130DA018951F920F920FB60F9211240F931F9351
S1130DB02F933F934F935F936F937F938F939F935F
S1130DC0AF93BF93EF93FF9380916401909165017A
S1130DD0AC01092E000C660B770B9A011127002732
S1130DE0409184005091850060E070E0402B512BCD
S1130DF0622B732B409366015093670160936801E3
S1130E0070936901B09B1AC00196092E000CAA0BBD
S1130E10BB0BBC0155274427809184009091850029
S1130E20A0E0B0E0842B952BA62BB72B8093660112
S1130E3090936701A0936801B0936901E0910E0259
S1130E40F0910F02309739F064E070E08091760100
S1130E509091770109950E94E104FF91EF91BF9170
S1130E60AF919F918F917F916F915F914F913F913E
S1130E702F911F910F910F900FBE0F901F901895F7
S1130E801F920F920FB60F9211240F931F932F935B
S1130E903F934F935F936F937F938F939F93AF93FE
S1130EA0BF93EF93FF938091640190916501AC012E
S1130EB0092E000C660B770B9A011127002740912D
S1130EC084005091850060E070E0402B512B622B30
S1130ED0732B40936601509367016093680170938C
S1130EE06901B09B1AC00196092E000CAA0BBB0B1A
S1130EF0BC01552744278091840090918500A0E08F
S1130F00B0E0842B952BA62BB72B8093660190938E
S1130F106701A0936801B0936901E0911002F09118
S1130F201102309739F065E070E08091780190917A
S1130F30790109950E94E104FF91EF91BF91AF916E
S1130F409F918F917F916F915F914F913F912F91DD
S1130F501F910F910F900FBE0F901F9018951F9225
S1130F600F920FB60F9211240F931F932F933F9359
S1130F704F935F936F937F938F939F93AF93BF939D
S1130F80EF93FF938091640190916501AC01092E68
S1130F90000C660B770B9A011127002740918400FF
S1130FA05091850060E070E0402B512B622B732B35
S1130FB040936601509367016093680170936901DF
S1130FC0B09B1AC00196092E000CAA0BBB0BBC01E6
S1130FD0552744278091840090918500A0E0B0E0DB
S1130FE0842B952BA62BB72B8093660190936701D6
S1130FF0A0936801B0936901E0911202F091130289
S1131000309739F066E070E080917A0190917B012D
S113101009950E94E104FF91EF91BF91AF919F91D7
S11310208F917F916F915F914F913F912F911F917C
S11310300F910F900FBE0F901F9018951F920F9253
S11310400FB60F9211240F931F932F933F934F9337
S11310505F936F937F938F939F93AF93BF93EF931C
S1131060FF938091640190916501AC01092E000CFD
S1131070660B770B9A011127002740918400509149
S1131080850060E070E0402B512B622B732B409362
S11310906601509367016093680170936901B09B86
S11310A01AC00196092E000CAA0BBB0BBC015527D4
S11310B044278091840090918500A0E0B0E0842BC7
S11310C0952BA62BB72B8093660190936701A09371
S11310D06801B0936901E0911402F0911502309710
S11310E039F067E070E080917C0190917D01099571
S11310F00E94E104FF91EF91BF91AF919F918F9175
S11311007F916F915F914F913F912F911F910F911B
S11311100F900FBE0F901F9018951F920F920FB64D
S11311200F9211240F931F932F933F934F935F9329
S11311306F937F938F939F93AF93BF93EF93FF939B
S11311408091640190916501AC01092E000C660B3D
S1131150770B9A0111270027409184005091850054
S113116060E070E0402B512B622B732B409366019F
S1131170509367016093680170936901B09B1AC032
S11311800196092E000CAA0BBB0BBC015527442762
S11311908091840090918500A0E0B0E0842B952B91
S11311A0A62BB72B8093660190936701A0936801E7
S11311B0B0936901E0911602F0911702309739F06B
S11311C068E070E080917E0190917F0109950E9412
S11311D0E104FF91EF91BF91AF919F918F917F9126
S11311E06F915F914F913F912F911F910F910F90AC
S11311F00FBE0F901F9018951F920F920FB60F926B
S113120011240F931F932F933F934F935F936F93E7
S11312107F938F939F93AF93BF93EF93FF938091AB
S1131220640190916501AC01092E000C660B770BEB
S11312309A0111270027409184005091850060E0B5
S113124070E0402B512B622B732B4093660150931B
S113125067016093680170936901B09B1AC001969D
S1131260092E000CAA0BBB0BBC0155274427809107
S1131270840090918500A0E0B0E0842B952BA62BF0
S1131280B72B8093660190936701A0936801B09394
S11312906901E0911802F0911902309739F069E080
S11312A070E0809180019091810109950E94E10490
S11312B0FF91EF91BF91AF919F918F917F916F912A
S11312C05F914F913F912F911F910F910F900FBEFE
S11312D00F901F9018951F920F920FB60F92112422
S11312E00F931F932F933F934F935F936F937F932A
S11312F08F939F93AF93BF93EF93FF938091640178
S113130090916501AC01092E000C660B770B9A01D4
S113131011270027409184005091850060E070E01F
S1131320402B512B622B732B409366015093670122
S11313306093680170936901B09B1AC00196092EED
S1131340000CAA0BBB0BBC015527442780918400D9
S113135090918500A0E0B0E0842B952BA62BB72BB1
S11313608093660190936701A0936801B09369012B
S1131370E0911A02F0911B02309739F06AE070E0B4
S1131380809182019091830109950E94E104FF916B
S1131390EF91BF91AF919F918F917F916F915F91E9
S11313A04F913F912F911F910F910F900FBE0F906E
S11313B01F9018951F920F920FB60F9211240F933E
S11313C01F932F933F934F935F936F937F938F93C9
S11313D09F93AF93BF93EF93FF9380916401909198
S11313E06501AC01092E000C660B770B9A011127DD
S11313F00027409184005091850060E070E0402B0C
S1131400512B622B732B40936601509367016093B9
S1131410680170936901B09B1AC00196092E000CF3
S1131420AA0BBB0BBC0155274427809184009091E3
S11314308500A0E0B0E0842B952BA62BB72B8093DE
S1131440660190936701A0936801B0936901E091EC
S11314501C02F0911D02309739F06BE070E080912E
S113146084019091850109950E94E104FF91EF9117
S1131470BF91AF919F918F917F916F915F914F91A8
S11314803F912F911F910F910F900FBE0F901F90BE
S113149018951F920F920FB60F9211240F931F935A
S11314A02F933F934F935F936F937F938F939F9368
S11314B0AF93BF93EF93FF93809164019091650183
S11314C0AC01092E000C660B770B9A01112700273B
S11314D0409184005091850060E070E0402B512BD6
S11314E0622B732B409366015093670160936801EC
S11314F070936901B09B1AC00196092E000CAA0BC7
S1131500BB0BBC0155274427809184009091850032
S1131510A0E0B0E0842B952BA62BB72B809366011B
S113152090936701A0936801B0936901E0911E0252
S1131530F0911F02309739F06CE070E080918601E1
S11315409091870109950E94E104FF91EF91BF9169
S1131550AF919F918F917F916F915F914F913F9147
S11315602F911F910F910F900FBE0F901F90189500
S11315701F920F920FB60F9211240F931F932F9364
S11315803F934F935F936F937F938F939F93AF9307
S1131590BF93EF93FF938091640190916501AC0137
S11315A0092E000C660B770B9A0111270027409136
S11315B084005091850060E070E0402B512B622B39
S11315C0732B409366015093670160936801709395
S11315D06901B09B1AC00196092E000CAA0BBB0B23
S11315E0BC01552744278091840090918500A0E098
S11315F0B0E0842B952BA62BB72B80936601909398
S11316006701A0936801B0936901E0912002F09111
S11316102102309739F06DE070E08091880190915B
S1131620890109950E94E104FF91EF91BF91AF9167
S11316309F918F917F916F915F914F913F912F91E6
S11316401F910F910F900FBE0F901F9018951F922E
S11316500F920FB60F9211240F931F932F933F9362
S11316604F935F936F937F938F939F93AF93BF93A6
S1131670EF93FF938091640190916501AC01092E71
S1131680000C660B770B9A01112700274091840008
S11316905091850060E070E0402B512B622B732B3E
S11316A040936601509367016093680170936901E8
S11316B0B09B1AC00196092E000CAA0BBB0BBC01EF
S11316C0552744278091840090918500A0E0B0E0E4
S11316D0842B952BA62BB72B8093660190936701DF
S11316E0A0936801B0936901E0912202F091230272
S11316F0309739F06EE070E080918A0190918B010F
S113170009950E94E104FF91EF91BF91AF919F91E0
S11317108F917F916F915F914F913F912F911F9185
S11317200F910F900FBE0F901F9018951F920F925C
S11317300FB60F9211240F931F932F933F934F9340
S11317405F936F937F938F939F93AF93BF93EF9325
S1131750FF938091640190916501AC01092E000C06
S1131760660B770B9A011127002740918400509152
S1131770850060E070E0402B512B622B732B40936B
S11317806601509367016093680170936901B09B8F
S11317901AC00196092E000CAA0BBB0BBC015527DD
S11317A044278091840090918500A0E0B0E0842BD0
S11317B0952BA62BB72B8093660190936701A0937A
S11317C06801B0936901E0912402F09125023097F9
S11317D039F06FE070E080918C0190918D01099552
S11317E00E94E104FF91EF91BF91AF919F918F917E
S11317F07F916F915F914F913F912F911F910F9125
S11318000F900FBE0F901F9018951F920F920FB656
S11318100F9211240F931F932F933F934F935F9332
S11318206F937F938F939F93AF93BF93EF93FF93A4
S11318308091640190916501AC01092E000C660B46
S1131840770B9A011127002740918400509185005D
S113185060E070E0402B512B622B732B40936601A8
S1131860509367016093680170936901B09B1AC03B
S11318700196092E000CAA0BBB0BBC01552744276B
S11318808091840090918500A0E0B0E0842B952B9A
S1131890A62BB72B8093660190936701A0936801F0
S11318A0B0936901E0912602F0912702309739F054
S11318B060E170E080918E0190918F0109950E9402
S11318C0E104FF91EF91BF91AF919F918F917F912F
S11318D06F915F914F913F912F911F910F910F90B5
S11318E00FBE0F901F9018951F920F920FB60F9274
S11318F011240F931F932F933F934F935F936F93F1
S11319007F938F939F93AF93BF93EF93FF938091B4
S1131910640190916501AC01092E000C660B770BF4
S11319209A0111270027409184005091850060E0BE
S113193070E0402B512B622B732B40936601509324
S113194067016093680170936901B09B1AC00196A6
S1131950092E000CAA0BBB0BBC0155274427809110
S1131960840090918500A0E0B0E0842B952BA62BF9
S1131970B72B8093660190936701A0936801B0939D
S11319806901E0912802F0912902309739F061E170
S113199070E0809190019091910109950E94E10479
S11319A0FF91EF91BF91AF919F918F917F916F9133
S11319B05F914F913F912F911F910F910F900FBE07
S11319C00F901F9018950E94E104789481E083BFE2
S11319D08895FCCF1F920F920FB60F9211242F936C
S11319E03F934F935F936F937F938F939F93EF9363
S11319F0FF93809164019091650101969093650134
S1131A0080936401E0916A01F0916B01309701F1D8
S1131A10428153816481758186179707C9F4CA018D
S1131A202091840030918500421B530B41305105B5
S1131A3029F4809184009091850001969093890007
S1131A4080938800EFE6F0E080818260808305C0A7
S1131A50EFE6F0E080818D7F8083FF91EF919F918D
S1131A608F917F916F915F914F913F912F910F9043
S1131A700FBE0F901F9018951F920F920FB60F92E2
S1131A801124CF92DF92EF92FF922F933F934F93C3
S1131A905F936F937F938F939F93AF93BF93EF93D2
S1131AA0FF9380916401909165016C01092E000CF3
S1131AB0EE08FF087601DD24CC2440918400509187
S1131AC0850060E070E0C42AD52AE62AF72AB09B94
S1131AD01EC06C012FEFC21AD20A0D2C000CEE08A6
S1131AE0FF08D60199278827C0908400D0908500EC
S1131AF0E12CF12CC82AD92AEA2AFB2A08C08AE652
S1131B0091E00E94AC046CE671E00E944A04E0910A
S1131B106A01F0916B01309769F082819381A4810D
S1131B20B5818C199D09AE09BF09181619061A0644
S1131B301B062CF7309721F182819381A481B58112
S1131B4020916401309165012A173B07C9F49C0177
S1131B504091840050918500841B950B019731F4CA
S1131B6020918400309185002F5F3F4F309389008E
S1131B7020938800EFE6F0E080818260808305C0D6
S1131B80EFE6F0E080818D7F80830E94E104FF9185
S1131B90EF91BF91AF919F918F917F916F915F91E1
S1131BA04F913F912F91FF90EF90DF90CF900F9046
S1131BB00FBE0F901F9018953F924F925F926F92B5
S1131BC07F928F929F92AF92BF92CF92DF92EF92C9
S1131BD0FF920F931F93CF93DF932B013C01490195
S1131BE05A018FB78078382EF8948AE591E00E94E4
S1131BF0AC04EC011B870A87FD86EC86DF86CE8663
S1131C00332061F0E0915401F09155010280F38199
S1131C10E02D82819381A481B58108C08091660101
S1131C2090916701A0916801B0916901480E591E15
S1131C306A1E7B1E4A825B826C827D8218141904A0
S1131C401A041B0444F00F2E88248A94982CA82C80
S1131C50FFE7BF2EF02D840C951CA61CB71C8E82AA
S1131C609F82A886B9862091640130916501C901DB
S1131C70032E000CAA0BBB0BDC019927882740918B
S1131C8084005091850060E070E0842B952BA62B96
S1131C90B72BB09B13C0C9010196092E000CAA0BE7
S1131CA0BB0BDC0199278827409184005091850063
S1131CB060E070E0842B952BA62BB72B481A590AA9
S1131CC06A0A7B0A1414150416041704ACF56AE6B0
S1131CD071E0CE010E947B04E0916A01F0916B01F6
S1131CE0309721F182819381A481B581209164018F
S1131CF0309165012A173B07C9F49C014091840087
S1131D0050918500841B950B019731F42091840038
S1131D10309185002F5F3F4F3093890020938800D6
S1131D20EFE6F0E080818260808339C0EFE6F0E086
S1131D3080818D7F808333C06CE671E0CE010E9488
S1131D404A04332061F18091580190915901892B03
S1131D5031F1E0916C01F0916D0186819781A0854C
S1131D60B185E0915601F09157010280F381E02D95
S1131D704681578160857185841B950BA60BB70B33
S1131D8072F488E591E00E94D70466E571E00E9450
S1131D90CD0480915601909157010E942A0433206A
S1131DA009F07894CE01DF91CF911F910F91FF90AC
S1131DB0EF90DF90CF90BF90AF909F908F907F90E7
S1131DC06F905F904F903F900895CF92DF92EF9283
S1131DD0FF920F931F93CF93DF93EC017B016A0172
S1131DE01FB71078F894A881B981109719F435C0F9
S1131DF0A081B1811496ED91FC9115973097C1F7AC
S1131E002091540130915501A217B30711F011111B
S1131E1007C0112309F44AC078948FEF9FEF4EC096
S1131E208A819B81009719F0FC01158214823B83FF
S1131E302A83F901D583C483CD010E942A04E09149
S1131E405401F091550182819381892B31F411233E
S1131E5081F1789480E090E031C0809154019091B8
S1131E60550199838883112329F08A819B810197E5
S1131E7009F07894B601CE01F7010995F82E092FDF
S1131E808FB7F894198218828A819B8182309105D8
S1131E9038F01B821A82FC01158214820E942A04E3
S1131EA0112351F078948F2D902F08C08FEF9FEF5E
S1131EB005C080E090E002C08F2D902FDF91CF917C
S1131EC01F910F91FF90EF90DF90CF9008950091B4
S1131ED05401109155018CE691E00E94AC04EC0190
S1131EE0F8019383828378946C857D854E855F8524
S1131EF08A859B850E94E50E8FB7F8946AE571E0A8
S1131F00CE010E94C304E0915601F0915701019063
S1131F10F081E02DC281D381E0916C01F0916D01DB
S1131F203097A1F0209799F286819781A085B18599
S1131F304E815F8168857985841B950BA60BB70B51
S1131F40181619061A061B060CF0C1CF86E591E097
S1131F500E94D70468E571E00E94CD04A091560167
S1131F60B091570102C0A081B1811496ED91FC910A
S1131F7015973097C1F7CD010E942A04A8CFFC0120
S1131F804231B8F49FB79078F89450E0440F551F4D
S1131F90DA01A259BE4FED93FC93DA01AA5FBD4F5B
S1131FA06D937C9321E030E033832283992309F0FD
S1131FB0789408958C017B016A018FB7F8940E948C
S1131FC08B037894E114F10441F020E030E0A9019E
S1131FD060E070E0CB010E94DC0D8FB7F8940E94A2
S1131FE0E30C97FB072E16F4009407D077FD09D075
S1131FF00E940C1007FC05D03EF4909581959F4FEC
S11320000895709561957F4F08950E942010B7FF41
S11320100895821B930B0895AA1BBB1B51E107C0B3
S1132020AA1FBB1FA617B70710F0A61BB70B881F64
S1132030991F5A95A9F780959095BC01CD010895F3
S1132040A29FB001B39FC001A39F700D811D1124F5
S1132050911DB29F700D811D1124911D0895DC0105
S11320602D923D924D925D926D927D928D929D92B4
S1132070AD92BD92CD92DD92ED92FD920D931D93A2
S1132080CD93DD93FF91EF918DB78D938EB78D93A3
S11320908FB78D93ED93FD93882799270994DC01DD
S11320A0CB0181309105811D2D903D904D905D9027
S11320B06D907D908D909D90AD90BD90CD90DD9074
S11320C0ED90FD900D911D91CD91DD91ED91FD91DE
S11320D00D90F894FEBF0FBEEDBFED91FD910994F4
S10720E0F894FFCF9E
S11320E451151801111E111B500B411B411F0940AE
S11320F4511F511B000000000000000001000000FB
S11321044A013C015C016001000000000000000081
S1132114000000004A013C015C0160010000000071
S11321244A0100000000000000000000000000005C
S10F2134050060012A022A029201470201
S9030000FC
