:100000000C942E000C94BA040C9429050C949805B9
:100010000C9407060C9476060C944B000C94E10C9F
:100020000C944B000C948F0C0C94E5060C94540724
:100030000C94C3070C9432080C94A1080C9410097A
:100040000C947F090C94EE090C945D0A0C94CC0A74
:100050000C943B0B0C94AA0B0C94190C11241FBE8E
:10006000CFEFD4E0DEBFCDBF11E0A0E0B1E0E2E031
:10007000F0E202C005900D92A637B107D9F724E04F
:10008000A6E7B1E001C01D92AD3CB207E1F70E94C6
:10009000FE020C94FF0F0C940000CF92DF92EF92BF
:1000A000FF920F931F93CF93DF9300D000D0CDB773
:1000B000DEB7FC0124813581215031093583248349
:1000C00082E090E09A8389833C832B8300851185AD
:1000D000CE0101966C010F2EF5E0EF2EF2E0FF2E1F
:1000E000F02D20E030E0A90160E070E0CB010E943B
:1000F000810D0F900F900F900F90DF91CF911F9176
:100100000F91FF90EF90DF90CF9008958F929F9284
:10011000AF92BF92CF92DF92EF92FF920F931F9315
:10012000CF93DF9300D000D0CDB7DEB75C01FC01E8
:1001300084809580FFEF8F1A9F0AFC01958284824C
:10014000C12CD12C0F2EFDE4EF2EF0E0FF2EF02D70
:100150008C0120E030E0A9016AE572E682E090E0DF
:100160000E94810D82E090E09A8389839C828B8239
:10017000F50100851185CE0101966C010F2EF5E089
:10018000EF2EF2E0FF2EF02D20E030E0A90160E03C
:1001900070E0CB010E94810D0F900F900F900F9097
:1001A000DF91CF911F910F91FF90EF90DF90CF9053
:1001B000BF90AF909F908F900895AF92BF92CF92D3
:1001C000DF92EF92FF920F931F93CF93DF9300D0B4
:1001D00000D0CDB7DEB75C01FC0184819581019729
:1001E0009583848304851585C12CD12C0F2EF6E8C8
:1001F000EF2EF0E0FF2EF02D20E030E0A90160E0CE
:1002000070E0CB010E94810DF50180859185880FFA
:10021000991F880F991F9A838983848195819C8374
:100220008B83AE014F5F5F4F65E072E080899189FB
:100230000E948A0EF50182859385019693878287B5
:100240000F900F900F900F90DF91CF911F910F9112
:10025000FF90EF90DF90CF90BF90AF900895CF9335
:10026000DF9300D000D0CDB7DEB7FC01208531850B
:1002700084819581019695838483220F331F220FF9
:10028000331F3A8329839C838B83AE014F5F5F4F7B
:1002900065E072E0808991890E948A0E0F900F902C
:1002A0000F900F90DF91CF910895CF92DF92EF9250
:1002B000FF920F931F93CF93DF93EC018889998965
:1002C000019731F5198A188A0C851D85C12CD12C0E
:1002D0000F2EF0E2EF2EF3E0FF2EF02D20E030E0C5
:1002E000A90160E070E0CB010E94810D0C851D85A5
:1002F0000F2EF8E1EF2EF3E0FF2EF02D20E030E09E
:10030000A9016AE572E682E090E00E94810D27C0B3
:1003100081E090E0998B888B0C851D85C12CD12CB8
:100320000F2EF0E2EF2EF3E0FF2EF02D20E030E074
:10033000A90160E070E0CB010E94810D0C851D8554
:100340000F2EF8E2EF2EF3E0FF2EF02D20E030E04C
:10035000A9016AE572E682E090E00E94810DC12C5D
:10036000D12C0F2EF5E5EF2EF1E0FF2EF02D8E01B2
:1003700020E030E0A90162EA7AE484E090E00E94A3
:10038000810DDF91CF911F910F91FF90EF90DF9042
:10039000CF90089546305105B8F56A3048F4E62FFD
:1003A000F0E0EE0FFF1FE050FF4F6081718102C04F
:1003B00060E070E040FF03C0AFE0B4E002C0A0EF37
:1003C000B0E055954795FA01E451FF4F20E030E049
:1003D00018C0862F8F7090E00B2E02C0880F991FD7
:1003E0000A94E2F790819A23892B8083759567950B
:1003F00075956795759567957595679535962F5F92
:100400003F4F243031052CF30895CF92DF92EF92C5
:10041000FF920F931F93CF93DF938C01FB01C08159
:10042000D181C280D380C60164E670E00E94960F3D
:100430000F2EFAE0EF2EF12CF02DB7010E94960F4F
:10044000AE01C8010E94CA012196C601B7010E94EF
:10045000960FAE01682FC8010E94CA01DF91CF91AB
:100460001F910F91FF90EF90DF90CF9008950F9321
:100470001F93CF93DF93CDB7DEB72C970FB6F894C9
:10048000DEBF0FBECDBF8C01E4EEF0E0808180685E
:10049000808387EB8093E500E7EEF0E080818F605A
:1004A000808387E08093E60080EC8CBB8DBBE1E627
:1004B000F0E080E8808310821A8219821C821B82FD
:1004C00084E090E09E838D8318861F8282E090E016
:1004D0009A8789871C861B86BE016F5F7F4FC80184
:1004E0000E940502BE016B5F7F4FC8010E9405029A
:1004F000BE01675F7F4FC8010E9405022C960FB6B0
:10050000F894DEBF0FBECDBFDF91CF911F910F9149
:100510000895AF92BF92CF92DF92EF92FF920F9326
:100520001F93CF935C01C091C600C0FF13C0FC01B4
:1005300004811581C12CD12C0F2EFFE2EF2EF1E0AA
:10054000FF2EF02D20E030E0A90160E070E0CB014B
:100550000E94810DC1FF13C0F50104811581C12CDA
:10056000D12C0F2EFDEDEF2EF0E0FF2EF02D20E030
:1005700030E0A90160E070E0CB010E94810DC2FF74
:1005800013C0F50106811781C12CD12C0F2EFFE27B
:10059000EF2EF1E0FF2EF02D20E030E0A90160E029
:1005A00070E0CB010E94810DC3FF13C0F5010681ED
:1005B0001781C12CD12C0F2EFDEDEF2EF0E0FF2E78
:1005C000F02D20E030E0A90160E070E0CB010E9456
:1005D000810DCF911F910F91FF90EF90DF90CF9001
:1005E000BF90AF9008959093C5008093C40088E9B0
:1005F0008093C10086E08093C200089586E791E071
:100600000E94370283E390E00E94F30248E069E829
:1006100072E084E191E00E94640F40E050E065E503
:1006200071E080E291E00E947F0F80E090E0089509
:100630008091C00085FFFCCF89E08093C6000895BB
:100640008091C00085FFFCCF8AE08093C6000895AA
:100650008091C00085FFFCCF86E08093C60008959E
:10066000CF93DF9300D000D0CDB7DEB780E090E02D
:1006700018C0AC014F5F5F4F9A0122953295307FD1
:100680003227207F3227235A3D4F82959295907FC3
:100690009827807F9827FC01E35AFD4F3183208300
:1006A000CA018E3091052CF310923E0310923D0347
:1006B00080E090E015C0AC014F5F5F4F6DE1649F3B
:1006C0009001659F300D112428553E4F689FF00121
:1006D000699FF00D1124E855FE4F31832083CA0134
:1006E0008330910544F3109200021092FF011A82A8
:1006F000198232C02DE149815A81249FC001259F72
:10070000900D1124FC01E255FE4FFC83EB83CF01D9
:100710000E94BE0F20E649815A81249FC001259F77
:10072000900D112487559C4FEB81FC81918B808B20
:10073000938B828B8CE09FE0968B858B8DE1849FE1
:10074000F001859FF00D1124E855FE4F15821482AB
:100750004F5F5F4F5A83498329813A8124303105A5
:100760004CF2E0E4F2E011821082158214821382CE
:100770001282E1E6F0E080E880831082109285002A
:100780001092840084E08093810081E080936F0068
:100790000F900F900F900F90DF91CF910895CF930E
:1007A000DF9300D0CDB7DEB79A83898380916E0145
:1007B00090916F0106960E94BE0F892B59F4898192
:1007C0009A8190936F0180936E0161E070E00696CC
:1007D0000E94DE0F0F900F90DF91CF9108950F933D
:1007E0001F93CF93DF93DC01CB01EB01E881F9810B
:1007F000C0E0D0E004C0EF010190F081E02D30971F
:1008000079F0068117812085318516964D915D918D
:100810006D917C91199740175107620773075CF738
:100820001196FC93EE93209721F4FC01B183A083F1
:1008300002C0B983A883DF91CF911F910F910895D2
:100840000F931F93CF93DF93DC01CB01EB01E88182
:10085000F981C0E0D0E004C0EF010190F081E02D0B
:10086000309779F0028113812481358112964D9160
:100870005D916D917C911597401751076207730741
:100880005CF71196FC93EE93209721F4FC01B18361
:10089000A08302C0B983A883DF91CF911F910F91EC
:1008A0000895DC01ED91FC911197309759F48FEF89
:1008B0008093EC008093ED008093EE0081E083BF95
:1008C0008895FCCF208131812D933C93CF010895F1
:1008D000FB0120813181FC0131832083FB01918365
:1008E00080830895FB0120813181FC0131832083C5
:1008F000FB01918380830895DC01ED91FC911197B8
:10090000208131812D933C93CF010895CF93DF93C4
:10091000E0917001F0917101C281D381E091820177
:10092000F0918301309719F18091720190917301D8
:10093000892BE9F0209769F086819781A085B185A0
:100940004E815F8168857985841B950BA60BB70B5B
:1009500072F482E791E00E947C0460E771E00E94FB
:10096000720480917001909171010E94CF03DF9118
:10097000CF9108951F920F920FB60F9211240F93EB
:100980001F932F933F934F935F936F937F938F9317
:100990009F93AF93BF93EF93FF9380917A019091D0
:1009A0007B01AC01092E000C660B770B9A01112715
:1009B0000027409184005091850060E070E0402B5A
:1009C000512B622B732B40937C0150937D016093DC
:1009D0007E0170937F01B09B1AC00196092E000C16
:1009E000AA0BBB0BBC015527442780918400909132
:1009F0008500A0E0B0E0842B952BA62BB72B80932D
:100A00007C0190937D01A0937E01B0937F01E091E2
:100A10001C02F0911D02309739F060E070E0809187
:100A200084019091850109950E948604FF91EF91C0
:100A3000BF91AF919F918F917F916F915F914F91F6
:100A40003F912F911F910F910F900FBE0F901F900C
:100A500018951F920F920FB60F9211240F931F93A8
:100A60002F933F934F935F936F937F938F939F93B6
:100A7000AF93BF93EF93FF9380917A0190917B01A5
:100A8000AC01092E000C660B770B9A011127002789
:100A9000409184005091850060E070E0402B512B24
:100AA000622B732B40937C0150937D0160937E01F8
:100AB00070937F01B09B1AC00196092E000CAA0BFF
:100AC000BB0BBC0155274427809184009091850081
:100AD000A0E0B0E0842B952BA62BB72B80937C0154
:100AE00090937D01A0937E01B0937F01E0911E025F
:100AF000F0911F02309739F061E070E0809186013B
:100B00009091870109950E948604FF91EF91BF9112
:100B1000AF919F918F917F916F915F914F913F9195
:100B20002F911F910F910F900FBE0F901F9018954E
:100B30001F920F920FB60F9211240F931F932F93B2
:100B40003F934F935F936F937F938F939F93AF9355
:100B5000BF93EF93FF9380917A0190917B01AC0159
:100B6000092E000C660B770B9A0111270027409184
:100B700084005091850060E070E0402B512B622B87
:100B8000732B40937C0150937D0160937E017093A1
:100B90007F01B09B1AC00196092E000CAA0BBB0B5B
:100BA000BC01552744278091840090918500A0E0E6
:100BB000B0E0842B952BA62BB72B80937C019093D0
:100BC0007D01A0937E01B0937F01E0912002F0911E
:100BD0002102309739F062E070E0809188019091B5
:100BE000890109950E948604FF91EF91BF91AF9111
:100BF0009F918F917F916F915F914F913F912F9135
:100C00001F910F910F900FBE0F901F9018951F927C
:100C10000F920FB60F9211240F931F932F933F93B0
:100C20004F935F936F937F938F939F93AF93BF93F4
:100C3000EF93FF9380917A0190917B01AC01092E93
:100C4000000C660B770B9A01112700274091840056
:100C50005091850060E070E0402B512B622B732B8C
:100C600040937C0150937D0160937E0170937F01DE
:100C7000B09B1AC00196092E000CAA0BBB0BBC013D
:100C8000552744278091840090918500A0E0B0E032
:100C9000842B952BA62BB72B80937C0190937D0101
:100CA000A0937E01B0937F01E0912202F091230294
:100CB000309739F063E070E080918A0190918B0168
:100CC00009950E948604FF91EF91BF91AF919F918A
:100CD0008F917F916F915F914F913F912F911F91D4
:100CE0000F910F900FBE0F901F9018951F920F92AB
:100CF0000FB60F9211240F931F932F933F934F938F
:100D00005F936F937F938F939F93AF93BF93EF9373
:100D1000FF9380917A0190917B01AC01092E000C28
:100D2000660B770B9A0111270027409184005091A0
:100D3000850060E070E0402B512B622B732B4093B9
:100D40007C0150937D0160937E0170937F01B09B85
:100D50001AC00196092E000CAA0BBB0BBC0155272B
:100D600044278091840090918500A0E0B0E0842B1E
:100D7000952BA62BB72B80937C0190937D01A0939C
:100D80007E01B0937F01E0912402F091250230971B
:100D900039F064E070E080918C0190918D010995AB
:100DA0000E948604FF91EF91BF91AF919F918F9127
:100DB0007F916F915F914F913F912F911F910F9173
:100DC0000F900FBE0F901F9018951F920F920FB6A5
:100DD0000F9211240F931F932F933F934F935F9381
:100DE0006F937F938F939F93AF93BF93EF93FF93F3
:100DF00080917A0190917B01AC01092E000C660B69
:100E0000770B9A01112700274091840050918500AB
:100E100060E070E0402B512B622B732B40937C01E0
:100E200050937D0160937E0170937F01B09B1AC047
:100E30000196092E000CAA0BBB0BBC0155274427B9
:100E40008091840090918500A0E0B0E0842B952BE8
:100E5000A62BB72B80937C0190937D01A0937E01FC
:100E6000B0937F01E0912602F0912702309739F08C
:100E700065E070E080918E0190918F0109950E944C
:100E80008604FF91EF91BF91AF919F918F917F91D8
:100E90006F915F914F913F912F911F910F910F9003
:100EA0000FBE0F901F9018951F920F920FB60F92C2
:100EB00011240F931F932F933F934F935F936F933F
:100EC0007F938F939F93AF93BF93EF93FF93809103
:100ED0007A0190917B01AC01092E000C660B770B17
:100EE0009A0111270027409184005091850060E00D
:100EF00070E0402B512B622B732B40937C0150935D
:100F00007D0160937E0170937F01B09B1AC00196B2
:100F1000092E000CAA0BBB0BBC015527442780915E
:100F2000840090918500A0E0B0E0842B952BA62B47
:100F3000B72B80937C0190937D01A0937E01B093A9
:100F40007F01E0912802F0912902309739F066E0A4
:100F500070E0809190019091910109950E94860422
:100F6000FF91EF91BF91AF919F918F917F916F9181
:100F70005F914F913F912F911F910F910F900FBE55
:100F80000F901F9018951F920F920FB60F92112479
:100F90000F931F932F933F934F935F936F937F9381
:100FA0008F939F93AF93BF93EF93FF9380917A01B9
:100FB00090917B01AC01092E000C660B770B9A0116
:100FC00011270027409184005091850060E070E077
:100FD000402B512B622B732B40937C0150937D014E
:100FE00060937E0170937F01B09B1AC00196092E19
:100FF000000CAA0BBB0BBC01552744278091840031
:1010000090918500A0E0B0E0842B952BA62BB72B08
:1010100080937C0190937D01A0937E01B0937F012A
:10102000E0912A02F0912B02309739F067E070E0EE
:10103000809192019091930109950E948604FF91FD
:10104000EF91BF91AF919F918F917F916F915F9140
:101050004F913F912F911F910F910F900FBE0F90C5
:101060001F9018951F920F920FB60F9211240F9395
:101070001F932F933F934F935F936F937F938F9320
:101080009F93AF93BF93EF93FF9380917A019091D9
:101090007B01AC01092E000C660B770B9A0111271E
:1010A0000027409184005091850060E070E0402B63
:1010B000512B622B732B40937C0150937D016093E5
:1010C0007E0170937F01B09B1AC00196092E000C1F
:1010D000AA0BBB0BBC01552744278091840090913B
:1010E0008500A0E0B0E0842B952BA62BB72B809336
:1010F0007C0190937D01A0937E01B0937F01E091EC
:101100002C02F0912D02309739F068E070E0809168
:1011100094019091950109950E948604FF91EF91A9
:10112000BF91AF919F918F917F916F915F914F91FF
:101130003F912F911F910F910F900FBE0F901F9015
:1011400018951F920F920FB60F9211240F931F93B1
:101150002F933F934F935F936F937F938F939F93BF
:10116000AF93BF93EF93FF9380917A0190917B01AE
:10117000AC01092E000C660B770B9A011127002792
:10118000409184005091850060E070E0402B512B2D
:10119000622B732B40937C0150937D0160937E0101
:1011A00070937F01B09B1AC00196092E000CAA0B08
:1011B000BB0BBC015527442780918400909185008A
:1011C000A0E0B0E0842B952BA62BB72B80937C015D
:1011D00090937D01A0937E01B0937F01E0912E0258
:1011E000F0912F02309739F069E070E0809196011C
:1011F0009091970109950E948604FF91EF91BF910C
:10120000AF919F918F917F916F915F914F913F919E
:101210002F911F910F910F900FBE0F901F90189557
:101220001F920F920FB60F9211240F931F932F93BB
:101230003F934F935F936F937F938F939F93AF935E
:10124000BF93EF93FF9380917A0190917B01AC0162
:10125000092E000C660B770B9A011127002740918D
:1012600084005091850060E070E0402B512B622B90
:10127000732B40937C0150937D0160937E017093AA
:101280007F01B09B1AC00196092E000CAA0BBB0B64
:10129000BC01552744278091840090918500A0E0EF
:1012A000B0E0842B952BA62BB72B80937C019093D9
:1012B0007D01A0937E01B0937F01E0913002F09117
:1012C0003102309739F06AE070E080919801909196
:1012D000990109950E948604FF91EF91BF91AF910A
:1012E0009F918F917F916F915F914F913F912F913E
:1012F0001F910F910F900FBE0F901F9018951F9286
:101300000F920FB60F9211240F931F932F933F93B9
:101310004F935F936F937F938F939F93AF93BF93FD
:10132000EF93FF9380917A0190917B01AC01092E9C
:10133000000C660B770B9A0111270027409184005F
:101340005091850060E070E0402B512B622B732B95
:1013500040937C0150937D0160937E0170937F01E7
:10136000B09B1AC00196092E000CAA0BBB0BBC0146
:10137000552744278091840090918500A0E0B0E03B
:10138000842B952BA62BB72B80937C0190937D010A
:10139000A0937E01B0937F01E0913202F09133027D
:1013A000309739F06BE070E080919A0190919B0149
:1013B00009950E948604FF91EF91BF91AF919F9193
:1013C0008F917F916F915F914F913F912F911F91DD
:1013D0000F910F900FBE0F901F9018951F920F92B4
:1013E0000FB60F9211240F931F932F933F934F9398
:1013F0005F936F937F938F939F93AF93BF93EF937D
:10140000FF9380917A0190917B01AC01092E000C31
:10141000660B770B9A0111270027409184005091A9
:10142000850060E070E0402B512B622B732B4093C2
:101430007C0150937D0160937E0170937F01B09B8E
:101440001AC00196092E000CAA0BBB0BBC01552734
:1014500044278091840090918500A0E0B0E0842B27
:10146000952BA62BB72B80937C0190937D01A093A5
:101470007E01B0937F01E0913402F0913502309704
:1014800039F06CE070E080919C0190919D0109958C
:101490000E948604FF91EF91BF91AF919F918F9130
:1014A0007F916F915F914F913F912F911F910F917C
:1014B0000F900FBE0F901F9018951F920F920FB6AE
:1014C0000F9211240F931F932F933F934F935F938A
:1014D0006F937F938F939F93AF93BF93EF93FF93FC
:1014E00080917A0190917B01AC01092E000C660B72
:1014F000770B9A01112700274091840050918500B5
:1015000060E070E0402B512B622B732B40937C01E9
:1015100050937D0160937E0170937F01B09B1AC050
:101520000196092E000CAA0BBB0BBC0155274427C2
:101530008091840090918500A0E0B0E0842B952BF1
:10154000A62BB72B80937C0190937D01A0937E0105
:10155000B0937F01E0913602F0913702309739F075
:101560006DE070E080919E0190919F0109950E942D
:101570008604FF91EF91BF91AF919F918F917F91E1
:101580006F915F914F913F912F911F910F910F900C
:101590000FBE0F901F9018951F920F920FB60F92CB
:1015A00011240F931F932F933F934F935F936F9348
:1015B0007F938F939F93AF93BF93EF93FF9380910C
:1015C0007A0190917B01AC01092E000C660B770B20
:1015D0009A0111270027409184005091850060E016
:1015E00070E0402B512B622B732B40937C01509366
:1015F0007D0160937E0170937F01B09B1AC00196BC
:10160000092E000CAA0BBB0BBC0155274427809167
:10161000840090918500A0E0B0E0842B952BA62B50
:10162000B72B80937C0190937D01A0937E01B093B2
:101630007F01E0913802F0913902309739F06EE085
:1016400070E08091A0019091A10109950E9486040B
:10165000FF91EF91BF91AF919F918F917F916F918A
:101660005F914F913F912F911F910F910F900FBE5E
:101670000F901F9018951F920F920FB60F92112482
:101680000F931F932F933F934F935F936F937F938A
:101690008F939F93AF93BF93EF93FF9380917A01C2
:1016A00090917B01AC01092E000C660B770B9A011F
:1016B00011270027409184005091850060E070E080
:1016C000402B512B622B732B40937C0150937D0157
:1016D00060937E0170937F01B09B1AC00196092E22
:1016E000000CAA0BBB0BBC0155274427809184003A
:1016F00090918500A0E0B0E0842B952BA62BB72B12
:1017000080937C0190937D01A0937E01B0937F0133
:10171000E0913A02F0913B02309739F06FE070E0CF
:101720008091A2019091A30109950E948604FF91E6
:10173000EF91BF91AF919F918F917F916F915F9149
:101740004F913F912F911F910F910F900FBE0F90CE
:101750001F9018951F920F920FB60F9211240F939E
:101760001F932F933F934F935F936F937F938F9329
:101770009F93AF93BF93EF93FF9380917A019091E2
:101780007B01AC01092E000C660B770B9A01112727
:101790000027409184005091850060E070E0402B6C
:1017A000512B622B732B40937C0150937D016093EE
:1017B0007E0170937F01B09B1AC00196092E000C28
:1017C000AA0BBB0BBC015527442780918400909144
:1017D0008500A0E0B0E0842B952BA62BB72B80933F
:1017E0007C0190937D01A0937E01B0937F01E091F5
:1017F0003C02F0913D02309739F060E170E0809159
:10180000A4019091A50109950E948604FF91EF9192
:10181000BF91AF919F918F917F916F915F914F9108
:101820003F912F911F910F910F900FBE0F901F901E
:1018300018951F920F920FB60F9211240F931F93BA
:101840002F933F934F935F936F937F938F939F93C8
:10185000AF93BF93EF93FF9380917A0190917B01B7
:10186000AC01092E000C660B770B9A01112700279B
:10187000409184005091850060E070E0402B512B36
:10188000622B732B40937C0150937D0160937E010A
:1018900070937F01B09B1AC00196092E000CAA0B11
:1018A000BB0BBC0155274427809184009091850093
:1018B000A0E0B0E0842B952BA62BB72B80937C0166
:1018C00090937D01A0937E01B0937F01E0913E0251
:1018D000F0913F02309739F061E170E08091A6010C
:1018E0009091A70109950E948604FF91EF91BF9105
:1018F000AF919F918F917F916F915F914F913F91A8
:101900002F911F910F910F900FBE0F901F90189560
:101910000E948604789481E083BF8895FCCF1F9253
:101920000F920FB60F9211242F933F934F935F9313
:101930006F937F938F939F93EF93FF9380917A019F
:1019400090917B01019690937B0180937A01E091C5
:101950008001F0918101309701F1428153816481CE
:10196000758186179707C9F4CA01209184003091C8
:101970008500421B530B4130510529F480918400AE
:101980009091850001969093890080938800EFE6FE
:10199000F0E080818260808305C0EFE6F0E0808126
:1019A0008D7F8083FF91EF919F918F917F916F91B8
:1019B0005F914F913F912F910F900FBE0F901F900D
:1019C00018951F920F920FB60F921124CF92DF92AB
:1019D000EF92FF922F933F934F935F936F937F9379
:1019E0008F939F93AF93BF93EF93FF9380917A016F
:1019F00090917B016C01092E000CEE08FF08760126
:101A0000DD24CC24409184005091850060E070E09A
:101A1000C42AD52AE62AF72AB09B1EC06C012FEFF4
:101A2000C21AD20A0D2C000CEE08FF08D601992725
:101A30008827C0908400D0908500E12CF12CC82A22
:101A4000D92AEA2AFB2A08C080E891E00E945104C2
:101A500062E871E00E94EF03E0918001F091810162
:101A6000309769F082819381A481B5818C199D0999
:101A7000AE09BF09181619061A061B062CF730976F
:101A800021F182819381A481B58120917A013091E5
:101A90007B012A173B07C9F49C01409184005091B7
:101AA0008500841B950B019731F4209184003091BF
:101AB00085002F5F3F4F3093890020938800EFE629
:101AC000F0E080818260808305C0EFE6F0E08081F5
:101AD0008D7F80830E948604FF91EF91BF91AF912B
:101AE0009F918F917F916F915F914F913F912F9136
:101AF000FF90EF90DF90CF900F900FBE0F901F9050
:101B000018953F924F925F926F927F928F929F9221
:101B1000AF92BF92CF92DF92EF92FF920F931F93FB
:101B2000CF93DF932B013C0149015A018FB7807895
:101B3000382EF89484E791E00E945104EC011B8751
:101B40000A87FD86EC86DF86CE86332061F0E09141
:101B50006E01F0916F010280F381E02D828193810B
:101B6000A481B58108C080917C0190917D01A091F4
:101B70007E01B0917F01480E591E6A1E7B1E4A826B
:101B80005B826C827D82181419041A041B0444F0D1
:101B90000F2E88248A94982CA82CFFE7BF2EF02DB6
:101BA000840C951CA61CB71C8E829F82A886B986C1
:101BB00020917A0130917B01C901032E000CAA0B00
:101BC000BB0BDC0199278827409184005091850048
:101BD00060E070E0842B952BA62BB72BB09B13C035
:101BE000C9010196092E000CAA0BBB0BDC01992739
:101BF0008827409184005091850060E070E0842B3C
:101C0000952BA62BB72B481A590A6A0A7B0A14147B
:101C1000150416041704ACF560E871E0CE010E94CB
:101C20002004E0918001F0918101309721F18281BF
:101C30009381A481B58120917A0130917B012A178B
:101C40003B07C9F49C014091840050918500841B9E
:101C5000950B019731F420918400309185002F5F1E
:101C60003F4F3093890020938800EFE6F0E08081B9
:101C70008260808339C0EFE6F0E080818D7F8083D1
:101C800033C062E871E0CE010E94EF03332061F1BE
:101C90008091720190917301892B31F1E091820161
:101CA000F091830186819781A085B185E0917001D3
:101CB000F09171010280F381E02D468157816085AA
:101CC0007185841B950BA60BB70B72F482E791E02C
:101CD0000E947C0460E771E00E94720480917001B0
:101CE000909171010E94CF03332009F07894CE01C6
:101CF000DF91CF911F910F91FF90EF90DF90CF90E8
:101D0000BF90AF909F908F907F906F905F904F901B
:101D10003F900895CF92DF92EF92FF920F931F931F
:101D2000CF93DF93EC017B016A011FB71078F89421
:101D3000A881B981109719F435C0A081B18114969A
:101D4000ED91FC9115973097C1F720916E0130917C
:101D50006F01A217B30711F0111107C0112309F485
:101D60004AC078948FEF9FEF4EC08A819B81009785
:101D700019F0FC01158214823B832A83F901D58373
:101D8000C483CD010E94CF03E0916E01F0916F01F9
:101D900082819381892B31F4112381F1789480E041
:101DA00090E031C080916E0190916F01998388839A
:101DB000112329F08A819B81019709F07894B6015B
:101DC000CE01F7010995F82E092F8FB7F8941982E3
:101DD00018828A819B818230910538F01B821A8299
:101DE000FC01158214820E94CF03112351F07894D4
:101DF0008F2D902F08C08FEF9FEF05C080E090E0FF
:101E000002C08F2D902FDF91CF911F910F91FF90E6
:101E1000EF90DF90CF90089500916E0110916F01C7
:101E200082E891E00E945104EC01F80193838283DF
:101E300078946C857D854E855F858A859B850E941B
:101E40008A0E8FB7F89464E771E0CE010E946804AF
:101E5000E0917001F09171010190F081E02DC2815B
:101E6000D381E0918201F09183013097A1F0209716
:101E700099F286819781A085B1854E815F816885C1
:101E80007985841B950BA60BB70B181619061A0635
:101E90001B060CF0C1CF80E791E00E947C0462E752
:101EA00071E00E947204A0917001B091710102C0B2
:101EB000A081B1811496ED91FC9115973097C1F7EF
:101EC000CD010E94CF03A8CFFC014231B8F49FB7E7
:101ED0009078F89450E0440F551FDA01AC57BE4F8C
:101EE000ED93FC93DA01A45EBD4F6D937C9321E0EA
:101EF00030E033832283992309F0789408958C018C
:101F00007B016A018FB7F8940E9430037894E11442
:101F1000F10441F020E030E0A90160E070E0CB0185
:101F20000E94810D8FB7F8940E94880C97FB072EB2
:101F300016F4009407D077FD09D00E94AA0F07FC81
:101F400005D03EF4909581959F4F089570956195C9
:101F50007F4F0895AA1BBB1B51E107C0AA1FBB1FDF
:101F6000A617B70710F0A61BB70B881F991F5A9525
:101F7000A9F780959095BC01CD010895DC012D92C3
:101F80003D924D925D926D927D928D929D92AD9219
:101F9000BD92CD92DD92ED92FD920D931D93CD9366
:101FA000DD93FF91EF918DB78D938EB78D938FB7A2
:101FB0008D93ED93FD93882799270994DC01CB013C
:101FC00081309105811D2D903D904D905D906D90DB
:101FD0007D908D909D90AD90BD90CD90DD90ED90D9
:101FE000FD900D911D91CD91DD91ED91FD910D90A3
:101FF000F894FEBF0FBEEDBFED91FD910994F894EA
:02200000FFCF10
:1020020051151801111E111B500B411B411F094094
:10201200511F511B000000004401320176012001D2
:102022000000000064014401320144015601000035
:102032000000000000000000000001000000640138
:1020420056017601000000000000000000000000C0
:10205200640156017601000000000000000001004A
:1020620000000100000000000000050076014002AF
:062072004002A8015D021E
:00000001FF
