:100000000C942E000C940E010C947D010C94EC01C8
:100010000C945B020C94CA020C944B000C942E09B5
:100020000C944B000C94DC080C9439030C94A8033A
:100030000C9417040C9486040C94F5040C94640539
:100040000C94D3050C9442060C94B1060C94200732
:100050000C948F070C94FE070C946D0811241FBE9E
:10006000CFEFD4E0DEBFCDBF11E0A0E0B1E0E2E22F
:10007000F4E102C005900D92A634B107D9F724E04F
:10008000A6E4B1E001C01D92A13AB207E1F70E94D7
:1000900053000C940F0A0C940000FC0177836683D4
:1000A00051874087089540E051E064E171E088E2C3
:1000B00091E00E944D0080E090E00895CF93DF939F
:1000C00000D0CDB7DEB79A838983809140019091AB
:1000D000410106960E94CE09892B59F489819A81A3
:1000E000909341018093400161E070E006960E9488
:1000F000EE090F900F90DF91CF9108950F931F930A
:10010000CF93DF93DC01CB01EB01E881F981C0E003
:10011000D0E004C0EF010190F081E02D309779F03C
:10012000068117812085318516964D915D916D91DF
:100130007C91199740175107620773075CF7119676
:10014000FC93EE93209721F4FC01B183A08302C0BD
:10015000B983A883DF91CF911F910F910895DC019E
:10016000ED91FC911197309759F48FEF8093EC004B
:100170008093ED008093EE0081E083BF8895FCCFF3
:10018000208131812D933C93CF010895FB01208183
:100190003181FC0131832083FB01918380830895A9
:1001A000DC01ED91FC911197208131812D933C93DD
:1001B000CF010895CF93DF93E0914201F091430185
:1001C000C281D381E0915601F0915701309719F126
:1001D0008091440190914501892BE9F0209769F0C5
:1001E00086819781A085B1854E815F8168857985FB
:1001F000841B950BA60BB70B72F484E491E00E946C
:10020000D00062E471E00E94C600809142019091AA
:1002100043010E945E00DF91CF9108951F920F92DB
:100220000FB60F9211240F931F932F933F934F9369
:100230005F936F937F938F939F93AF93BF93EF934E
:10024000FF9380914E0190914F01AC01092E000C5B
:10025000660B770B9A01112700274091840050917B
:10026000850060E070E0402B512B622B732B409394
:100270005001509351016093520170935301B09B10
:100280001AC00196092E000CAA0BBB0BBC01552706
:1002900044278091840090918500A0E0B0E0842BF9
:1002A000952BA62BB72B8093500190935101A093CF
:1002B0005201B0935301E091F001F091F1013097B8
:1002C00039F060E070E080915801909159010995F2
:1002D0000E94DA00FF91EF91BF91AF919F918F91B2
:1002E0007F916F915F914F913F912F911F910F914E
:1002F0000F900FBE0F901F9018951F920F920FB680
:100300000F9211240F931F932F933F934F935F935B
:100310006F937F938F939F93AF93BF93EF93FF93CD
:1003200080914E0190914F01AC01092E000C660B9B
:10033000770B9A0111270027409184005091850086
:1003400060E070E0402B512B622B732B40935001E7
:10035000509351016093520170935301B09B1AC0A6
:100360000196092E000CAA0BBB0BBC015527442794
:100370008091840090918500A0E0B0E0842B952BC3
:10038000A62BB72B8093500190935101A09352015B
:10039000B0935301E091F201F091F301309739F0FD
:1003A00061E070E080915A0190915B0109950E9493
:1003B000DA00FF91EF91BF91AF919F918F917F9163
:1003C0006F915F914F913F912F911F910F910F90DE
:1003D0000FBE0F901F9018951F920F920FB60F929D
:1003E00011240F931F932F933F934F935F936F931A
:1003F0007F938F939F93AF93BF93EF93FF938091DE
:100400004E0190914F01AC01092E000C660B770B49
:100410009A0111270027409184005091850060E0E7
:1004200070E0402B512B622B732B40935001509363
:1004300051016093520170935301B09B1AC0019611
:10044000092E000CAA0BBB0BBC0155274427809139
:10045000840090918500A0E0B0E0842B952BA62B22
:10046000B72B8093500190935101A0935201B09308
:100470005301E091F401F091F501309739F062E019
:1004800070E080915C0190915D0109950E94DA0015
:10049000FF91EF91BF91AF919F918F917F916F915C
:1004A0005F914F913F912F911F910F910F900FBE30
:1004B0000F901F9018951F920F920FB60F92112454
:1004C0000F931F932F933F934F935F936F937F935C
:1004D0008F939F93AF93BF93EF93FF9380914E01C0
:1004E00090914F01AC01092E000C660B770B9A011D
:1004F00011270027409184005091850060E070E052
:10050000402B512B622B732B409350015093510180
:100510006093520170935301B09B1AC00196092E4B
:10052000000CAA0BBB0BBC0155274427809184000B
:1005300090918500A0E0B0E0842B952BA62BB72BE3
:100540008093500190935101A0935201B0935301B5
:10055000E091F601F091F701309739F063E070E037
:1005600080915E0190915F0109950E94DA00FF91F0
:10057000EF91BF91AF919F918F917F916F915F911B
:100580004F913F912F911F910F910F900FBE0F90A0
:100590001F9018951F920F920FB60F9211240F9370
:1005A0001F932F933F934F935F936F937F938F93FB
:1005B0009F93AF93BF93EF93FF9380914E019091E0
:1005C0004F01AC01092E000C660B770B9A01112725
:1005D0000027409184005091850060E070E0402B3E
:1005E000512B622B732B4093500150935101609318
:1005F000520170935301B09B1AC00196092E000C52
:10060000AA0BBB0BBC015527442780918400909115
:100610008500A0E0B0E0842B952BA62BB72B809310
:10062000500190935101A0935201B0935301E09176
:10063000F801F091F901309739F064E070E08091B1
:1006400060019091610109950E94DA00FF91EF919C
:10065000BF91AF919F918F917F916F915F914F91DA
:100660003F912F911F910F910F900FBE0F901F90F0
:1006700018951F920F920FB60F9211240F931F938C
:100680002F933F934F935F936F937F938F939F939A
:10069000AF93BF93EF93FF9380914E0190914F01E1
:1006A000AC01092E000C660B770B9A01112700276D
:1006B000409184005091850060E070E0402B512B08
:1006C000622B732B40935001509351016093520160
:1006D00070935301B09B1AC00196092E000CAA0B0F
:1006E000BB0BBC0155274427809184009091850065
:1006F000A0E0B0E0842B952BA62BB72B8093500164
:1007000090935101A0935201B0935301E091FA01EB
:10071000F091FB01309739F065E070E08091620163
:100720009091630109950E94DA00FF91EF91BF91CA
:10073000AF919F918F917F916F915F914F913F9179
:100740002F911F910F910F900FBE0F901F90189532
:100750001F920F920FB60F9211240F931F932F9396
:100760003F934F935F936F937F938F939F93AF9339
:10077000BF93EF93FF9380914E0190914F01AC0195
:10078000092E000C660B770B9A0111270027409168
:1007900084005091850060E070E0402B512B622B6B
:1007A000732B409350015093510160935201709309
:1007B0005301B09B1AC00196092E000CAA0BBB0B6B
:1007C000BC01552744278091840090918500A0E0CA
:1007D000B0E0842B952BA62BB72B809350019093E0
:1007E0005101A0935201B0935301E091FC01F091AB
:1007F000FD01309739F066E070E0809164019091DE
:10080000650109950E94DA00FF91EF91BF91AF91C8
:100810009F918F917F916F915F914F913F912F9118
:100820001F910F910F900FBE0F901F9018951F9260
:100830000F920FB60F9211240F931F932F933F9394
:100840004F935F936F937F938F939F93AF93BF93D8
:10085000EF93FF9380914E0190914F01AC01092ECF
:10086000000C660B770B9A0111270027409184003A
:100870005091850060E070E0402B512B622B732B70
:100880004093500150935101609352017093530172
:10089000B09B1AC00196092E000CAA0BBB0BBC0121
:1008A000552744278091840090918500A0E0B0E016
:1008B000842B952BA62BB72B80935001909351013D
:1008C000A0935201B0935301E091FE01F091FF011A
:1008D000309739F067E070E0809166019091670190
:1008E00009950E94DA00FF91EF91BF91AF919F911E
:1008F0008F917F916F915F914F913F912F911F91B8
:100900000F910F900FBE0F901F9018951F920F928E
:100910000FB60F9211240F931F932F933F934F9372
:100920005F936F937F938F939F93AF93BF93EF9357
:10093000FF9380914E0190914F01AC01092E000C64
:10094000660B770B9A011127002740918400509184
:10095000850060E070E0402B512B622B732B40939D
:100960005001509351016093520170935301B09B19
:100970001AC00196092E000CAA0BBB0BBC0155270F
:1009800044278091840090918500A0E0B0E0842B02
:10099000952BA62BB72B8093500190935101A093D8
:1009A0005201B0935301E0910002F091010230979F
:1009B00039F068E070E080916801909169010995D3
:1009C0000E94DA00FF91EF91BF91AF919F918F91BB
:1009D0007F916F915F914F913F912F911F910F9157
:1009E0000F900FBE0F901F9018951F920F920FB689
:1009F0000F9211240F931F932F933F934F935F9365
:100A00006F937F938F939F93AF93BF93EF93FF93D6
:100A100080914E0190914F01AC01092E000C660BA4
:100A2000770B9A011127002740918400509185008F
:100A300060E070E0402B512B622B732B40935001F0
:100A4000509351016093520170935301B09B1AC0AF
:100A50000196092E000CAA0BBB0BBC01552744279D
:100A60008091840090918500A0E0B0E0842B952BCC
:100A7000A62BB72B8093500190935101A093520164
:100A8000B0935301E0910202F0910302309739F0E4
:100A900069E070E080916A0190916B0109950E9474
:100AA000DA00FF91EF91BF91AF919F918F917F916C
:100AB0006F915F914F913F912F911F910F910F90E7
:100AC0000FBE0F901F9018951F920F920FB60F92A6
:100AD00011240F931F932F933F934F935F936F9323
:100AE0007F938F939F93AF93BF93EF93FF938091E7
:100AF0004E0190914F01AC01092E000C660B770B53
:100B00009A0111270027409184005091850060E0F0
:100B100070E0402B512B622B732B4093500150936C
:100B200051016093520170935301B09B1AC001961A
:100B3000092E000CAA0BBB0BBC0155274427809142
:100B4000840090918500A0E0B0E0842B952BA62B2B
:100B5000B72B8093500190935101A0935201B09311
:100B60005301E0910402F0910502309739F06AE0F8
:100B700070E080916C0190916D0109950E94DA00FE
:100B8000FF91EF91BF91AF919F918F917F916F9165
:100B90005F914F913F912F911F910F910F900FBE39
:100BA0000F901F9018951F920F920FB60F9211245D
:100BB0000F931F932F933F934F935F936F937F9365
:100BC0008F939F93AF93BF93EF93FF9380914E01C9
:100BD00090914F01AC01092E000C660B770B9A0126
:100BE00011270027409184005091850060E070E05B
:100BF000402B512B622B732B40935001509351018A
:100C00006093520170935301B09B1AC00196092E54
:100C1000000CAA0BBB0BBC01552744278091840014
:100C200090918500A0E0B0E0842B952BA62BB72BEC
:100C30008093500190935101A0935201B0935301BE
:100C4000E0910602F0910702309739F06BE070E016
:100C500080916E0190916F0109950E94DA00FF91D9
:100C6000EF91BF91AF919F918F917F916F915F9124
:100C70004F913F912F911F910F910F900FBE0F90A9
:100C80001F9018951F920F920FB60F9211240F9379
:100C90001F932F933F934F935F936F937F938F9304
:100CA0009F93AF93BF93EF93FF9380914E019091E9
:100CB0004F01AC01092E000C660B770B9A0111272E
:100CC0000027409184005091850060E070E0402B47
:100CD000512B622B732B4093500150935101609321
:100CE000520170935301B09B1AC00196092E000C5B
:100CF000AA0BBB0BBC01552744278091840090911F
:100D00008500A0E0B0E0842B952BA62BB72B809319
:100D1000500190935101A0935201B0935301E0917F
:100D20000802F0910902309739F06CE070E0809190
:100D300070019091710109950E94DA00FF91EF9185
:100D4000BF91AF919F918F917F916F915F914F91E3
:100D50003F912F911F910F910F900FBE0F901F90F9
:100D600018951F920F920FB60F9211240F931F9395
:100D70002F933F934F935F936F937F938F939F93A3
:100D8000AF93BF93EF93FF9380914E0190914F01EA
:100D9000AC01092E000C660B770B9A011127002776
:100DA000409184005091850060E070E0402B512B11
:100DB000622B732B40935001509351016093520169
:100DC00070935301B09B1AC00196092E000CAA0B18
:100DD000BB0BBC015527442780918400909185006E
:100DE000A0E0B0E0842B952BA62BB72B809350016D
:100DF00090935101A0935201B0935301E0910A02E4
:100E0000F0910B02309739F06DE070E08091720143
:100E10009091730109950E94DA00FF91EF91BF91C3
:100E2000AF919F918F917F916F915F914F913F9182
:100E30002F911F910F910F900FBE0F901F9018953B
:100E40001F920F920FB60F9211240F931F932F939F
:100E50003F934F935F936F937F938F939F93AF9342
:100E6000BF93EF93FF9380914E0190914F01AC019E
:100E7000092E000C660B770B9A0111270027409171
:100E800084005091850060E070E0402B512B622B74
:100E9000732B409350015093510160935201709312
:100EA0005301B09B1AC00196092E000CAA0BBB0B74
:100EB000BC01552744278091840090918500A0E0D3
:100EC000B0E0842B952BA62BB72B809350019093E9
:100ED0005101A0935201B0935301E0910C02F091A3
:100EE0000D02309739F06EE070E0809174019091BE
:100EF000750109950E94DA00FF91EF91BF91AF91C2
:100F00009F918F917F916F915F914F913F912F9121
:100F10001F910F910F900FBE0F901F9018951F9269
:100F20000F920FB60F9211240F931F932F933F939D
:100F30004F935F936F937F938F939F93AF93BF93E1
:100F4000EF93FF9380914E0190914F01AC01092ED8
:100F5000000C660B770B9A01112700274091840043
:100F60005091850060E070E0402B512B622B732B79
:100F7000409350015093510160935201709353017B
:100F8000B09B1AC00196092E000CAA0BBB0BBC012A
:100F9000552744278091840090918500A0E0B0E01F
:100FA000842B952BA62BB72B809350019093510146
:100FB000A0935201B0935301E0910E02F0910F0201
:100FC000309739F06FE070E0809176019091770171
:100FD00009950E94DA00FF91EF91BF91AF919F9127
:100FE0008F917F916F915F914F913F912F911F91C1
:100FF0000F910F900FBE0F901F9018951F920F9298
:101000000FB60F9211240F931F932F933F934F937B
:101010005F936F937F938F939F93AF93BF93EF9360
:10102000FF9380914E0190914F01AC01092E000C6D
:10103000660B770B9A01112700274091840050918D
:10104000850060E070E0402B512B622B732B4093A6
:101050005001509351016093520170935301B09B22
:101060001AC00196092E000CAA0BBB0BBC01552718
:1010700044278091840090918500A0E0B0E0842B0B
:10108000952BA62BB72B8093500190935101A093E1
:101090005201B0935301E0911002F0911102309788
:1010A00039F060E170E080917801909179010995C3
:1010B0000E94DA00FF91EF91BF91AF919F918F91C4
:1010C0007F916F915F914F913F912F911F910F9160
:1010D0000F900FBE0F901F9018951F920F920FB692
:1010E0000F9211240F931F932F933F934F935F936E
:1010F0006F937F938F939F93AF93BF93EF93FF93E0
:1011000080914E0190914F01AC01092E000C660BAD
:10111000770B9A0111270027409184005091850098
:1011200060E070E0402B512B622B732B40935001F9
:10113000509351016093520170935301B09B1AC0B8
:101140000196092E000CAA0BBB0BBC0155274427A6
:101150008091840090918500A0E0B0E0842B952BD5
:10116000A62BB72B8093500190935101A09352016D
:10117000B0935301E0911202F0911302309739F0CD
:1011800061E170E080917A0190917B0109950E9464
:10119000DA00FF91EF91BF91AF919F918F917F9175
:1011A0006F915F914F913F912F911F910F910F90F0
:1011B0000FBE0F901F9018951F920F920FB60F92AF
:1011C00011242F933F934F935F936F937F938F934C
:1011D0009F93EF93FF9380914E0190914F01019661
:1011E00090934F0180934E01E0915401F09155018D
:1011F000309701F142815381648175818617970789
:10120000C9F4CA012091840030918500421B530B20
:101210004130510529F48091840090918500019618
:101220009093890080938800EFE6F0E080818260EF
:10123000808305C0EFE6F0E080818D7F8083FF91A1
:10124000EF919F918F917F916F915F914F913F911E
:101250002F910F900FBE0F901F9018951F920F9215
:101260000FB60F921124CF92DF92EF92FF922F933D
:101270003F934F935F936F937F938F939F93AF931E
:10128000BF93EF93FF9380914E0190914F016C01BA
:10129000092E000CEE08FF087601DD24CC244091D5
:1012A00084005091850060E070E0C42AD52AE62AC7
:1012B000F72AB09B1EC06C012FEFC21AD20A0D2C68
:1012C000000CEE08FF08D60199278827C0908400FB
:1012D000D0908500E12CF12CC82AD92AEA2AFB2AD1
:1012E00008C084E591E00E94AF0066E571E00E94CD
:1012F0007E00E0915401F0915501309769F08281B0
:101300009381A481B5818C199D09AE09BF09181676
:1013100019061A061B062CF7309721F1828193815A
:10132000A481B58120914E0130914F012A173B07CE
:10133000C9F49C014091840050918500841B950B59
:10134000019731F420918400309185002F5F3F4F49
:101350003093890020938800EFE6F0E0808182607E
:10136000808305C0EFE6F0E080818D7F80830E945E
:10137000DA00FF91EF91BF91AF919F918F917F9193
:101380006F915F914F913F912F91FF90EF90DF9080
:10139000CF900F900FBE0F901F901895DC012D92EB
:1013A0003D924D925D926D927D928D929D92AD9205
:1013B000BD92CD92DD92ED92FD920D931D93CD9352
:1013C000DD93FF91EF918DB78D938EB78D938FB78E
:1013D0008D93ED93FD93882799270994DC01CB0128
:1013E00081309105811D2D903D904D905D906D90C7
:1013F0007D908D909D90AD90BD90CD90DD90ED90C5
:10140000FD900D911D91CD91DD91ED91FD910D908E
:10141000F894FEBF0FBEEDBFED91FD910994F894D5
:02142000FFCFFC
:1014220000000000000000003601280146014A01C8
:10143200000000000000000000000000360128014A
:1014420046014A01000000000000000036010000D1
:1014520000000000000000000000000005004A013A
:06146200140214027C01DB
:00000001FF
