S00D00004C616262352E7372656371
S11300000C942E000C94FF020C946E030C94DD03EC
S11300100C944C040C94BB040C944B000C94260BD1
S11300200C944B000C94D40A0C942A050C94990556
S11300300C9408060C9477060C94E6060C94550769
S11300400C94C4070C9433080C94A2080C94110962
S11300500C9480090C94EF090C945E0A11241FBEC1
S1130060CFEFD4E0DEBFCDBF11E0A0E0B1E0ECE81B
S1130070FCE102C005900D92AC31B107D9F724E040
S1130080ACE1B1E001C01D92A737B207E1F70E94CD
S113009055010C94440E0C94000046305105B8F5FB
S11300A06A3048F4E62FF0E0EE0FFF1FE050FF4FF8
S11300B06081718102C060E070E040FF03C0AFE086
S11300C0B4E002C0A0EFB0E055954795FA01E451C1
S11300D0FF4F20E030E018C0862F8F7090E00B2E89
S11300E002C0880F991F0A94E2F790819A23892B02
S11300F080837595679575956795759567957595DD
S1130100679535962F5F3F4F243031052CF30895C2
S1130110CF92DF92EF92FF920F931F93CF93DF93CF
S11301208C01FB01C081D181C280D380C60164E609
S113013070E00E94DB0D0F2EFAE0EF2EF12CF02D73
S1130140B7010E94DB0DAE01C8010E944D0021964B
S1130150C601B7010E94DB0DAE01682FC8010E94E1
S11301604D00DF91CF911F910F91FF90EF90DF90A1
S1130170CF9008950F931F93CF93DF93CDB7DEB73E
S11301802C970FB6F894DEBF0FBECDBF8C01E4EE02
S1130190F0E080818068808387EB8093E500E7EE60
S11301A0F0E080818F60808387E08093E60085B1F2
S11301B0806D85B98EB18C608EB98FE284B980E58B
S11301C08DB980EC8DBB9CE090936B0090ED909387
S11301D06C008093800088E1809381001092640019
S11301E0E1E6F0E080E8808310821A8219821C82A2
S11301F01B8284E090E09E838D8318861F8282E0B8
S113020090E09A8789871C861B86BE016F5F7F4FAB
S1130210C8010E948800BE016B5F7F4FC8010E9425
S11302208800BE01675F7F4FC8010E9488002C963A
S11302300FB6F894DEBF0FBECDBFDF91CF911F91F3
S11302400F9108951F93CF93DF9300D000D0CDB7C3
S1130250DEB71091C6001A821982212F30E0265F82
S11302603F4F3C832B83BE016F5F7F4FFC01808532
S113027091850E9488008091C00085FFFCCF1C59A5
S11302801093C6000F900F900F900F90DF91CF91B5
S11302901F9108959093C5008093C40088E98093CA
S11302A0C10086E08093C200089580E291E00E943C
S11302B0BA0083E390E00E944A0148E062E271E000
S11302C0CB010E94A90D40E050E06EE671E08CE1A4
S11302D091E00E94C40D80E090E008958091C000F8
S11302E085FFFCCF6093C6000895CF93DF9300D0C1
S11302F000D0CDB7DEB780E090E018C0AC014F5F0E
S11303005F4F9A0122953295307F3227207F322722
S1130310295F3D4F82959295907F9827807F9827FB
S1130320FC01E95FFD4F31832083CA018E309105C2
S11303302CF31092E8021092E70280E090E015C0DE
S1130340AC014F5F5F4F6DE1649F9001659F300D7D
S113035011242E5A3E4F689FF001699FF00D11241D
S1130360EE5AFE4F31832083CA018330910544F352
S11303701092AA011092A9011A82198232C02DE1A9
S113038049815A81249FC001259F900D1124FC01AD
S1130390E85AFE4FFC83EB83CF010E94030E20E654
S11303A049815A81249FC001259F900D11248D5AA3
S11303B09C4FEB81FC81918B808B938B828B81E5AD
S11303C09DE0968B858B8DE1849FF001859FF00DD8
S11303D01124EE5AFE4F158214824F5F5F4F5A83E9
S11303E0498329813A81243031054CF2EAEEF1E067
S11303F0118210821582148213821282E1E6F0E0E7
S113040080E880831082109285001092840084E03A
S11304108093810081E080936F000F900F900F9084
S11304200F90DF91CF910895CF93DF9300D0CDB794
S1130430DEB79A8389838091140190911501069601
S11304400E94030E892B59F489819A819093150196
S11304508093140161E070E006960E94230E0F90D1
S11304600F90DF91CF9108950F931F93CF93DF9354
S1130470DC01CB01EB01E881F981C0E0D0E004C0EC
S1130480EF010190F081E02D309779F0068117811A
S11304902085318516964D915D916D917C911997CA
S11304A040175107620773075CF71196FC93EE93AC
S11304B0209721F4FC01B183A08302C0B983A883EF
S11304C0DF91CF911F910F9108950F931F93CF93B5
S11304D0DF93DC01CB01EB01E881F981C0E0D0E0DE
S11304E004C0EF010190F081E02D309779F0028192
S11304F013812481358112964D915D916D917C918A
S1130500159740175107620773075CF71196FC9320
S1130510EE93209721F4FC01B183A08302C0B98338
S1130520A883DF91CF911F910F910895DC01ED9184
S1130530FC911197309759F48FEF8093EC008093DE
S1130540ED008093EE0081E083BF8895FCCF20818D
S113055031812D933C93CF010895FB01208131819A
S1130560FC0131832083FB01918380830895FB0187
S113057020813181FC0131832083FB0191838083BD
S11305800895DC01ED91FC911197208131812D9327
S11305903C93CF010895CF93DF93E0911601F0913E
S11305A01701C281D381E0912C01F0912D01309784
S11305B019F18091180190911901892BE9F0209784
S11305C069F086819781A085B1854E815F816885B8
S11305D07985841B950BA60BB70B72F488E191E027
S11305E00E94C10266E171E00E94B7028091160187
S11305F0909117010E941402DF91CF9108951F92E8
S11306000F920FB60F9211240F931F932F933F93C2
S11306104F935F936F937F938F939F93AF93BF9306
S1130620EF93FF938091240190912501AC01092E51
S1130630000C660B770B9A01112700274091840068
S11306405091850060E070E0402B512B622B732B9E
S11306504093260150932701609328017093290148
S1130660B09B1AC00196092E000CAA0BBB0BBC014F
S1130670552744278091840090918500A0E0B0E044
S1130680842B952BA62BB72B8093260190932701BF
S1130690A0932801B0932901E091C601F091C7010C
S11306A0309739F060E070E080912E0190912F0135
S11306B009950E94CB02FF91EF91BF91AF919F9159
S11306C08F917F916F915F914F913F912F911F91E6
S11306D00F910F900FBE0F901F9018951F920F92BD
S11306E00FB60F9211240F931F932F933F934F93A1
S11306F05F936F937F938F939F93AF93BF93EF9386
S1130700FF938091240190912501AC01092E000CE6
S1130710660B770B9A0111270027409184005091B2
S1130720850060E070E0402B512B622B732B4093CB
S11307302601509327016093280170932901B09BEF
S11307401AC00196092E000CAA0BBB0BBC0155273D
S113075044278091840090918500A0E0B0E0842B30
S1130760952BA62BB72B8093260190932701A0935A
S11307702801B0932901E091C801F091C901309793
S113078039F061E070E08091300190913101099578
S11307900E94CB02FF91EF91BF91AF919F918F91F6
S11307A07F916F915F914F913F912F911F910F9185
S11307B00F900FBE0F901F9018951F920F920FB6B7
S11307C00F9211240F931F932F933F934F935F9393
S11307D06F937F938F939F93AF93BF93EF93FF9305
S11307E08091240190912501AC01092E000C660B27
S11307F0770B9A01112700274091840050918500BE
S113080060E070E0402B512B622B732B4093260148
S1130810509327016093280170932901B09B1AC05B
S11308200196092E000CAA0BBB0BBC0155274427CB
S11308308091840090918500A0E0B0E0842B952BFA
S1130840A62BB72B8093260190932701A093280110
S1130850B0932901E091CA01F091CB01309739F0AE
S113086062E070E0809132019091330109950E9419
S1130870CB02FF91EF91BF91AF919F918F917F91A7
S11308806F915F914F913F912F911F910F910F9015
S11308900FBE0F901F9018951F920F920FB60F92D4
S11308A011240F931F932F933F934F935F936F9351
S11308B07F938F939F93AF93BF93EF93FF93809115
S11308C0240190912501AC01092E000C660B770BD5
S11308D09A0111270027409184005091850060E01F
S11308E070E0402B512B622B732B409326015093C5
S11308F027016093280170932901B09B1AC00196C7
S1130900092E000CAA0BBB0BBC0155274427809170
S1130910840090918500A0E0B0E0842B952BA62B59
S1130920B72B8093260190932701A0932801B093BD
S11309302901E091CC01F091CD01309739F063E0C9
S113094070E0809134019091350109950E94CB02A9
S1130950FF91EF91BF91AF919F918F917F916F9193
S11309605F914F913F912F911F910F910F900FBE67
S11309700F901F9018951F920F920FB60F9211248B
S11309800F931F932F933F934F935F936F937F9393
S11309908F939F93AF93BF93EF93FF938091240121
S11309A090912501AC01092E000C660B770B9A017E
S11309B011270027409184005091850060E070E089
S11309C0402B512B622B732B40932601509327010C
S11309D06093280170932901B09B1AC00196092ED7
S11309E0000CAA0BBB0BBC01552744278091840043
S11309F090918500A0E0B0E0842B952BA62BB72B1B
S1130A008093260190932701A0932801B093290194
S1130A10E091CE01F091CF01309739F064E070E0BD
S1130A20809136019091370109950E94CB02FF9184
S1130A30EF91BF91AF919F918F917F916F915F9152
S1130A404F913F912F911F910F910F900FBE0F90D7
S1130A501F9018951F920F920FB60F9211240F93A7
S1130A601F932F933F934F935F936F937F938F9332
S1130A709F93AF93BF93EF93FF9380912401909141
S1130A802501AC01092E000C660B770B9A01112786
S1130A900027409184005091850060E070E0402B75
S1130AA0512B622B732B40932601509327016093A3
S1130AB0280170932901B09B1AC00196092E000CDD
S1130AC0AA0BBB0BBC01552744278091840090914D
S1130AD08500A0E0B0E0842B952BA62BB72B809348
S1130AE0260190932701A0932801B0932901E09156
S1130AF0D001F091D101309739F065E070E0809138
S1130B0038019091390109950E94CB02FF91EF9130
S1130B10BF91AF919F918F917F916F915F914F9111
S1130B203F912F911F910F910F900FBE0F901F9027
S1130B3018951F920F920FB60F9211240F931F93C3
S1130B402F933F934F935F936F937F938F939F93D1
S1130B50AF93BF93EF93FF9380912401909125016C
S1130B60AC01092E000C660B770B9A0111270027A4
S1130B70409184005091850060E070E0402B512B3F
S1130B80622B732B40932601509327016093280115
S1130B9070932901B09B1AC00196092E000CAA0B70
S1130BA0BB0BBC015527442780918400909185009C
S1130BB0A0E0B0E0842B952BA62BB72B80932601C5
S1130BC090932701A0932801B0932901E091D201C9
S1130BD0F091D301309739F066E070E080913A01EA
S1130BE090913B0109950E94CB02FF91EF91BF9137
S1130BF0AF919F918F917F916F915F914F913F91B1
S1130C002F911F910F910F900FBE0F901F90189569
S1130C101F920F920FB60F9211240F931F932F93CD
S1130C203F934F935F936F937F938F939F93AF9370
S1130C30BF93EF93FF938091240190912501AC0120
S1130C40092E000C660B770B9A011127002740919F
S1130C5084005091850060E070E0402B512B622BA2
S1130C60732B4093260150932701609328017093BE
S1130C702901B09B1AC00196092E000CAA0BBB0BCC
S1130C80BC01552744278091840090918500A0E001
S1130C90B0E0842B952BA62BB72B80932601909341
S1130CA02701A0932801B0932901E091D401F09188
S1130CB0D501309739F067E070E080913C01909164
S1130CC03D0109950E94CB02FF91EF91BF91AF9135
S1130CD09F918F917F916F915F914F913F912F9150
S1130CE01F910F910F900FBE0F901F9018951F9298
S1130CF00F920FB60F9211240F931F932F933F93CC
S1130D004F935F936F937F938F939F93AF93BF930F
S1130D10EF93FF938091240190912501AC01092E5A
S1130D20000C660B770B9A01112700274091840071
S1130D305091850060E070E0402B512B622B732BA7
S1130D404093260150932701609328017093290151
S1130D50B09B1AC00196092E000CAA0BBB0BBC0158
S1130D60552744278091840090918500A0E0B0E04D
S1130D70842B952BA62BB72B8093260190932701C8
S1130D80A0932801B0932901E091D601F091D701F5
S1130D90309739F068E070E080913E0190913F0116
S1130DA009950E94CB02FF91EF91BF91AF919F9162
S1130DB08F917F916F915F914F913F912F911F91EF
S1130DC00F910F900FBE0F901F9018951F920F92C6
S1130DD00FB60F9211240F931F932F933F934F93AA
S1130DE05F936F937F938F939F93AF93BF93EF938F
S1130DF0FF938091240190912501AC01092E000CF0
S1130E00660B770B9A0111270027409184005091BB
S1130E10850060E070E0402B512B622B732B4093D4
S1130E202601509327016093280170932901B09BF8
S1130E301AC00196092E000CAA0BBB0BBC01552746
S1130E4044278091840090918500A0E0B0E0842B39
S1130E50952BA62BB72B8093260190932701A09363
S1130E602801B0932901E091D801F091D90130977C
S1130E7039F069E070E08091400190914101099559
S1130E800E94CB02FF91EF91BF91AF919F918F91FF
S1130E907F916F915F914F913F912F911F910F918E
S1130EA00F900FBE0F901F9018951F920F920FB6C0
S1130EB00F9211240F931F932F933F934F935F939C
S1130EC06F937F938F939F93AF93BF93EF93FF930E
S1130ED08091240190912501AC01092E000C660B30
S1130EE0770B9A01112700274091840050918500C7
S1130EF060E070E0402B512B622B732B4093260152
S1130F00509327016093280170932901B09B1AC064
S1130F100196092E000CAA0BBB0BBC0155274427D4
S1130F208091840090918500A0E0B0E0842B952B03
S1130F30A62BB72B8093260190932701A093280119
S1130F40B0932901E091DA01F091DB01309739F097
S1130F506AE070E0809142019091430109950E94FA
S1130F60CB02FF91EF91BF91AF919F918F917F91B0
S1130F706F915F914F913F912F911F910F910F901E
S1130F800FBE0F901F9018951F920F920FB60F92DD
S1130F9011240F931F932F933F934F935F936F935A
S1130FA07F938F939F93AF93BF93EF93FF9380911E
S1130FB0240190912501AC01092E000C660B770BDE
S1130FC09A0111270027409184005091850060E028
S1130FD070E0402B512B622B732B409326015093CE
S1130FE027016093280170932901B09B1AC00196D0
S1130FF0092E000CAA0BBB0BBC015527442780917A
S1131000840090918500A0E0B0E0842B952BA62B62
S1131010B72B8093260190932701A0932801B093C6
S11310202901E091DC01F091DD01309739F06BE0AA
S113103070E0809144019091450109950E94CB0292
S1131040FF91EF91BF91AF919F918F917F916F919C
S11310505F914F913F912F911F910F910F900FBE70
S11310600F901F9018951F920F920FB60F92112494
S11310700F931F932F933F934F935F936F937F939C
S11310808F939F93AF93BF93EF93FF93809124012A
S113109090912501AC01092E000C660B770B9A0187
S11310A011270027409184005091850060E070E092
S11310B0402B512B622B732B409326015093270115
S11310C06093280170932901B09B1AC00196092EE0
S11310D0000CAA0BBB0BBC0155274427809184004C
S11310E090918500A0E0B0E0842B952BA62BB72B24
S11310F08093260190932701A0932801B09329019E
S1131100E091DE01F091DF01309739F06CE070E09E
S1131110809146019091470109950E94CB02FF916D
S1131120EF91BF91AF919F918F917F916F915F915B
S11311304F913F912F911F910F910F900FBE0F90E0
S11311401F9018951F920F920FB60F9211240F93B0
S11311501F932F933F934F935F936F937F938F933B
S11311609F93AF93BF93EF93FF938091240190914A
S11311702501AC01092E000C660B770B9A0111278F
S11311800027409184005091850060E070E0402B7E
S1131190512B622B732B40932601509327016093AC
S11311A0280170932901B09B1AC00196092E000CE6
S11311B0AA0BBB0BBC015527442780918400909156
S11311C08500A0E0B0E0842B952BA62BB72B809351
S11311D0260190932701A0932801B0932901E0915F
S11311E0E001F091E101309739F06DE070E0809119
S11311F048019091490109950E94CB02FF91EF911A
S1131200BF91AF919F918F917F916F915F914F911A
S11312103F912F911F910F910F900FBE0F901F9030
S113122018951F920F920FB60F9211240F931F93CC
S11312302F933F934F935F936F937F938F939F93DA
S1131240AF93BF93EF93FF93809124019091250175
S1131250AC01092E000C660B770B9A0111270027AD
S1131260409184005091850060E070E0402B512B48
S1131270622B732B4093260150932701609328011E
S113128070932901B09B1AC00196092E000CAA0B79
S1131290BB0BBC01552744278091840090918500A5
S11312A0A0E0B0E0842B952BA62BB72B80932601CE
S11312B090932701A0932801B0932901E091E201C2
S11312C0F091E301309739F06EE070E080914A01CB
S11312D090914B0109950E94CB02FF91EF91BF9130
S11312E0AF919F918F917F916F915F914F913F91BA
S11312F02F911F910F910F900FBE0F901F90189573
S11313001F920F920FB60F9211240F931F932F93D6
S11313103F934F935F936F937F938F939F93AF9379
S1131320BF93EF93FF938091240190912501AC0129
S1131330092E000C660B770B9A01112700274091A8
S113134084005091850060E070E0402B512B622BAB
S1131350732B4093260150932701609328017093C7
S11313602901B09B1AC00196092E000CAA0BBB0BD5
S1131370BC01552744278091840090918500A0E00A
S1131380B0E0842B952BA62BB72B8093260190934A
S11313902701A0932801B0932901E091E401F09181
S11313A0E501309739F06FE070E080914C01909145
S11313B04D0109950E94CB02FF91EF91BF91AF912E
S11313C09F918F917F916F915F914F913F912F9159
S11313D01F910F910F900FBE0F901F9018951F92A1
S11313E00F920FB60F9211240F931F932F933F93D5
S11313F04F935F936F937F938F939F93AF93BF9319
S1131400EF93FF938091240190912501AC01092E63
S1131410000C660B770B9A0111270027409184007A
S11314205091850060E070E0402B512B622B732BB0
S1131430409326015093270160932801709329015A
S1131440B09B1AC00196092E000CAA0BBB0BBC0161
S1131450552744278091840090918500A0E0B0E056
S1131460842B952BA62BB72B8093260190932701D1
S1131470A0932801B0932901E091E601F091E701DE
S1131480309739F060E170E080914E0190914F0106
S113149009950E94CB02FF91EF91BF91AF919F916B
S11314A08F917F916F915F914F913F912F911F91F8
S11314B00F910F900FBE0F901F9018951F920F92CF
S11314C00FB60F9211240F931F932F933F934F93B3
S11314D05F936F937F938F939F93AF93BF93EF9398
S11314E0FF938091240190912501AC01092E000CF9
S11314F0660B770B9A0111270027409184005091C5
S1131500850060E070E0402B512B622B732B4093DD
S11315102601509327016093280170932901B09B01
S11315201AC00196092E000CAA0BBB0BBC0155274F
S113153044278091840090918500A0E0B0E0842B42
S1131540952BA62BB72B8093260190932701A0936C
S11315502801B0932901E091E801F091E901309765
S113156039F061E170E08091500190915101099549
S11315700E94CB02FF91EF91BF91AF919F918F9108
S11315807F916F915F914F913F912F911F910F9197
S11315900F900FBE0F901F9018950E94CB02789465
S11315A081E083BF8895FCCF1F920F920FB60F92F4
S11315B011242F933F934F935F936F937F938F9354
S11315C09F93EF93FF9380912401909125010196BD
S11315D09093250180932401E0912A01F0912B013D
S11315E0309701F142815381648175818617970791
S11315F0C9F4CA012091840030918500421B530B29
S11316004130510529F48091840090918500019620
S11316109093890080938800EFE6F0E080818260F7
S1131620808305C0EFE6F0E080818D7F8083FF91A9
S1131630EF919F918F917F916F915F914F913F9126
S11316402F910F900FBE0F901F9018951F920F921D
S11316500FB60F921124CF92DF92EF92FF922F9345
S11316603F934F935F936F937F938F939F93AF9326
S1131670BF93EF93FF9380912401909125016C0116
S1131680092E000CEE08FF087601DD24CC244091DD
S113169084005091850060E070E0C42AD52AE62ACF
S11316A0F72AB09B1EC06C012FEFC21AD20A0D2C70
S11316B0000CEE08FF08D60199278827C090840003
S11316C0D0908500E12CF12CC82AD92AEA2AFB2AD9
S11316D008C08AE291E00E9496026CE271E00E94E6
S11316E03402E0912A01F0912B01309769F0828154
S11316F09381A481B5818C199D09AE09BF0918167F
S113170019061A061B062CF7309721F18281938162
S1131710A481B58120912401309125012A173B072A
S1131720C9F49C014091840050918500841B950B61
S1131730019731F420918400309185002F5F3F4F51
S11317403093890020938800EFE6F0E08081826086
S1131750808305C0EFE6F0E080818D7F80830E9466
S1131760CB02FF91EF91BF91AF919F918F917F91A8
S11317706F915F914F913F912F91FF90EF90DF9088
S1131780CF900F900FBE0F901F9018953F924F92DD
S11317905F926F927F928F929F92AF92BF92CF92FD
S11317A0DF92EF92FF920F931F93CF93DF932B015E
S11317B03C0149015A018FB78078382EF8948AE1A8
S11317C091E00E949602EC011B870A87FD86EC8655
S11317D0DF86CE86332061F0E0911401F09115018B
S11317E00280F381E02D82819381A481B58108C0B8
S11317F08091260190912701A0912801B09129019F
S1131800480E591E6A1E7B1E4A825B826C827D8250
S1131810181419041A041B0444F00F2E88248A9403
S1131820982CA82CFFE7BF2EF02D840C951CA61C29
S1131830B71C8E829F82A886B9862091240130919C
S11318402501C901032E000CAA0BBB0BDC0199274F
S11318508827409184005091850060E070E0842BDB
S1131860952BA62BB72BB09B13C0C9010196092E4B
S1131870000CAA0BBB0BDC0199278827409184003C
S11318805091850060E070E0842B952BA62BB72B3C
S1131890481A590A6A0A7B0A141415041604170410
S11318A0ACF56AE271E0CE010E946502E0912A0182
S11318B0F0912B01309721F182819381A481B5812C
S11318C020912401309125012A173B07C9F49C017A
S11318D04091840050918500841B950B019731F44D
S11318E020918400309185002F5F3F4F3093890011
S11318F020938800EFE6F0E080818260808339C025
S1131900EFE6F0E080818D7F808333C06CE271E08C
S1131910CE010E943402332061F18091180190912C
S11319201901892B31F1E0912C01F0912D0186816F
S11319309781A085B185E0911601F091170102808D
S1131940F381E02D4681578160857185841B950B59
S1131950A60BB70B72F488E191E00E94C10266E124
S113196071E00E94B70280911601909117010E94C4
S11319701402332009F07894CE01DF91CF911F91A6
S11319800F91FF90EF90DF90CF90BF90AF909F901A
S11319908F907F906F905F904F903F900895CF927B
S11319A0DF92EF92FF920F931F93CF93DF93EC019B
S11319B07B016A011FB71078F894A881B981109748
S11319C019F435C0A081B1811496ED91FC9115975D
S11319D03097C1F72091140130911501A217B30774
S11319E011F0111107C0112309F44AC078948FEF44
S11319F09FEF4EC08A819B81009719F0FC011582EC
S1131A0014823B832A83F901D583C483CD010E94C8
S1131A101402E0911401F091150182819381892BC4
S1131A2031F4112381F1789480E090E031C0809109
S1131A3014019091150199838883112329F08A81D7
S1131A409B81019709F07894B601CE01F7010995BD
S1131A50F82E092F8FB7F894198218828A819B81F6
S1131A608230910538F01B821A82FC01158214829F
S1131A700E941402112351F078948F2D902F08C0E6
S1131A808FEF9FEF05C080E090E002C08F2D902F74
S1131A90DF91CF911F910F91FF90EF90DF90CF9046
S1131AA0089500911401109115018CE291E00E94B7
S1131AB09602EC01F8019383828378946C857D858A
S1131AC04E855F858A859B850E94CF0C8FB7F894DD
S1131AD06AE171E0CE010E94AD02E0911601F0913D
S1131AE017010190F081E02DC281D381E0912C0196
S1131AF0F0912D013097A1F0209799F2868197817A
S1131B00A085B1854E815F8168857985841B950B9D
S1131B10A60BB70B181619061A061B060CF0C1CF34
S1131B2086E191E00E94C10268E171E00E94B7027F
S1131B30A0911601B091170102C0A081B181149641
S1131B40ED91FC9115973097C1F7CD010E941402D5
S1131B50A8CFFC014231B8F49FB79078F89450E0D4
S1131B60440F551FDA01A25DBE4FED93FC93DA01D9
S1131B70AA53BE4F6D937C9321E030E033832283DC
S1131B80992309F0789408958C017B016A018FB739
S1131B90F8940E9475017894E114F10441F020E076
S1131BA030E0A90160E070E0CB010E94C60B8FB762
S1131BB0F8940E94CD0A97FB072E16F4009407D0E0
S1131BC077FD09D00E94EF0D07FC05D03EF49095F7
S1131BD081959F4F0895709561957F4F0895AA1B35
S1131BE0BB1B51E107C0AA1FBB1FA617B70710F004
S1131BF0A61BB70B881F991F5A95A9F78095909536
S1131C00BC01CD010895DC012D923D924D925D926F
S1131C106D927D928D929D92AD92BD92CD92DD9208
S1131C20ED92FD920D931D93CD93DD93FF91EF9172
S1131C308DB78D938EB78D938FB78D93ED93FD9361
S1131C40882799270994DC01CB0181309105811DF6
S1131C502D903D904D905D906D907D908D909D90D8
S1131C60AD90BD90CD90DD90ED90FD900D911D91C6
S1131C70CD91DD91ED91FD910D90F894FEBF0FBED5
S10F1C80EDBFED91FD910994F894FFCFA5
S1131C8C51151801111E111B500B411B411F09400A
S10F1C9C511F511BEA01EA01520107022A
S9030000FC
