S00D00004C616262352E7372656371
S11300000C942E000C94EB060C945A070C94C9071C
S11300100C9438080C94A7080C944B000C94120F01
S11300200C944B000C94C00E0C9416090C94850986
S11300300C94F4090C94630A0C94D20A0C94410BAA
S11300400C94B00B0C941F0C0C948E0C0C94FD0CA3
S11300500C946C0D0C94DB0D0C944A0E11241FBEF1
S1130060CFEFD4E0DEBFCDBF11E0A0E0B1E0E0E926
S1130070F4E202C005900D92AA37B107D9F724E043
S1130080AAE7B1E001C01D92A13DB207E1F70E94C9
S11300902F050C9446120C940000CF92DF92EF923D
S11300A0FF920F931F93CF93DF9300D000D0CDB76F
S11300B0DEB7FC0124813581215031093583248345
S11300C082E090E09A8389833C832B8300851185A9
S11300D0CE0101966C010F2EF6E3EF2EF4E0FF2E15
S11300E0F02D20E030E0A90160E070E0CB010E9437
S11300F0B20F0F900F900F900F90DF91CF911F913F
S11301000F91FF90EF90DF90CF9008958F929F9280
S1130110AF92BF92CF92DF92EF92FF920F931F9311
S1130120CF93DF9300D000D0CDB7DEB75C01FC01E4
S113013084809580FFEF8F1A9F0AFC019582848248
S1130140C12CD12C0F2EFDE4EF2EF0E0FF2EF02D6C
S11301508C0120E030E0A9016AE572E682E090E0DB
S11301600E94B20F82E090E09A8389839C828B8202
S1130170F50100851185CE0101966C010F2EF6E381
S1130180EF2EF4E0FF2EF02D20E030E0A90160E036
S113019070E0CB010E94B20F0F900F900F900F9060
S11301A0DF91CF911F910F91FF90EF90DF90CF904F
S11301B0BF90AF909F908F900895FC01738B628BDA
S11301C00895FC01138612860895AF92BF92CF92D0
S11301D0DF92EF92FF920F931F93CF93DF9300D0A0
S11301E000D0CDB7DEB75C01FC0182859385019612
S11301F0938782878481958101979583848304857D
S11302001585C12CD12C0F2EF6E8EF2EF0E0FF2E31
S1130210F02D20E030E0A90160E070E0CB010E9405
S1130220B20FF50180859185880F991F880F991F5A
S11302309A838983848195819C838B83AE014F5FEC
S11302405F4F66E374E0808991890E94BB10F501D9
S113025022853385828993898217930724F08481C8
S11302609581892BB9F4F50106851785C12CD12C0C
S11302700F2EF1E5EF2EF5E0FF2EF02D20E030E01B
S1130280A90160E070E0CB010E94B20FF501138672
S1130290128651C0F50180859185019731F5068557
S11302A01785C12CD12C0F2EF1E5EF2EF5E0FF2E92
S11302B0F02D20E030E0A90169E07DE380E090E0EA
S11302C00E94B20FF501068517850F2EF9E5EF2E72
S11302D0F5E0FF2EF02D20E030E0A90162E17AE79D
S11302E080E090E00E94B20F26C0F50106851785D4
S11302F0C12CD12C0F2EF1E5EF2EF5E0FF2EF02DC1
S113030020E030E0A90169E07DE380E090E00E9414
S1130310B20FF501068517850F2EF9E4EF2EF5E0EF
S1130320FF2EF02D20E030E0A90162E17AE780E0C1
S113033090E00E94B20F0F900F900F900F90DF91FA
S1130340CF911F910F91FF90EF90DF90CF90BF90CE
S1130350AF900895CF93DF9300D000D0CDB7DEB730
S1130360FC01208531858481958101969583848360
S1130370220F331F220F331F3A8329839C838B83DD
S1130380AE014F5F5F4F66E374E0808991890E94FC
S1130390BB100F900F900F900F90DF91CF910895A5
S11303A06F927F928F929F92AF92BF92CF92DF9281
S11303B0EF92FF920F931F93CF93DF93EC01AE80E4
S11303C0BF80888499846C807D80C12CD12C0F2EB1
S11303D0F1EEEF2EF0E0FF2EF02D850120E030E06D
S11303E0A90160E070E0CB010E94B20F0885198575
S11303F020E030E0A90160E070E0CB010E94B20F80
S11304000E811F810F2EFDEDEF2EF0E0FF2EF02D5B
S113041020E030E0A90160E070E0CB010E94B20F5F
S11304200885198520E030E0A90160E070E0CB0187
S11304300E94B20FF50184819581181619060CF0FB
S113044091C0F40124813581121613060CF08AC080
S113045088899989019721F58E819F819B878A8755
S1130460198A188A0C851D850F2EF9E4EF2EF5E004
S1130470FF2EF02D20E030E0A90160E070E0CB0118
S11304800E94B20FEA85FB85A480B580FBE0AF161D
S1130490B1046CF10F2EFAE0AF2EB12CF02D27C071
S11304A0888599859B878A8781E090E0998B888BE2
S11304B00C851D85C12CD12C0F2EF9E5EF2EF5E00E
S11304C0FF2EF02D20E030E0A90160E070E0CB01C8
S11304D00E94B20FEA85FB85A480B5808BE0A81644
S11304E0B1042CF00F2EFAE0AF2EB12CF02D0A85BA
S11304F01B856501E1E0CE1AD1080F2EFDEDEF2E2C
S1130500F0E0FF2EF02D20E030E0A90160E070E083
S1130510CB010E94B20F0C851D8522E13AE7D5017B
S11305200E94DB11C12CD12C0F2EF1E5EF2EF5E04A
S1130530FF2EF02D20E030E0A9010E94B20FD5017A
S1130540159622E13AE70E94DB110F2EF0EDEF2E13
S1130550F1E0FF2EF02D8E0120E030E0A9010E9491
S1130560B20F3AC1009731F4F40124813581121697
S1130570130654F0181619060CF01CC1F40124815A
S11305803581232B09F016C1F40124813581232BF5
S113059009F08EC088899989019709F042C0F30156
S11305A084819581181619061CF50C851D85C12CAE
S11305B0D12C0F2EF1E5EF2EF5E0FF2EF02D20E0EB
S11305C030E0A90160E070E0CB010E94B20F0F2E71
S11305D0F0EDEF2EF1E0FF2EF02D8E0120E030E063
S11305E0A90169E07DE380E090E00E94B20FF4C0CD
S11305F0198A188A8E819F819B878A870C851D851D
S1130600C12CD12C0F2EF9E4EF2EF5E0FF2EF02DA6
S113061020E030E0A90160E070E0CB010E94B20F5D
S113062012C00C851D85C12CD12C0F2EF9E4EF2EA0
S1130630F5E0FF2EF02D20E030E0A90160E070E04D
S1130640CB010E94B20FEA85FB85A480B580FBE054
S1130650AF16B1042CF00F2EFAE0AF2EB12CF02D12
S11306600E811F81650181E0C81AD1080F2EFDEDAE
S1130670EF2EF0E0FF2EF02D20E030E0A90160E045
S113068070E0CB010E94B20F22E13AE7D5010E944B
S1130690DB11C12CD12C0F2EF0EDEF2EF1E0FF2E4B
S11306A0F02D8E0120E030E0A9010E94B20F94C029
S11306B0892B09F091C088899989892BA1F5F301C7
S11306C084819581181619069CF4C12CD12C0F2E07
S11306D0F0EDEF2EF1E0FF2EF02D8E0120E030E062
S11306E0A90169E07DE380E090E00E94B20F74C04C
S11306F081E090E0998B888B888599859B878A8790
S11307000C851D85C12CD12C0F2EF9E5EF2EF5E0BB
S1130710FF2EF02D20E030E0A90160E070E0CB0175
S11307200E94B20F12C00C851D85C12CD12C0F2E36
S1130730F9E5EF2EF5E0FF2EF02D20E030E0A901E1
S113074060E070E0CB010E94B20FEA85FB85A480D3
S1130750B580FBE0AF16B1042CF00F2EFAE0AF2EFB
S1130760B12CF02D08851985650181E0C81AD108DE
S11307700F2EFDEDEF2EF0E0FF2EF02D20E030E007
S1130780A90160E070E0CB010E94B20F22E13AE7D8
S1130790D5010E94DB11C12CD12C0F2EF0EDEF2ED0
S11307A0F1E0FF2EF02D8E0120E030E0A9010E943F
S11307B0B20F12C0C12CD12C0F2EF0EDEF2EF1E0B0
S11307C0FF2EF02D8E0120E030E0A90165E37CE0EE
S11307D080E090E00E94B20FDF91CF911F910F91C2
S11307E0FF90EF90DF90CF90BF90AF909F908F904D
S11307F07F906F90089546305105B8F56A3048F4FB
S1130800E62FF0E0EE0FFF1FE050FF4F6081718193
S113081002C060E070E040FF03C0AFE0B4E002C09B
S1130820A0EFB0E055954795FA01E451FF4F20E061
S113083030E018C0862F8F7090E00B2E02C0880F16
S1130840991F0A94E2F790819A23892B80837595E6
S113085067957595679575956795759567953596BB
S11308602F5F3F4F243031052CF30895CF92DF9250
S1130870EF92FF920F931F93CF93DF938C01FB01B1
S1130880C081D181C280D380C60164E670E00E9439
S1130890C7110F2EFAE0EF2EF12CF02DB7010E94B4
S11308A0C711AE01C8010E94FB032196C601B7011E
S11308B00E94C711AE01682FC8010E94FB03DF919B
S11308C0CF911F910F91FF90EF90DF90CF900895FB
S11308D00F931F93CF93DF93CDB7DEB72C970FB64B
S11308E0F894DEBF0FBECDBF8C01E4EEF0E0808152
S11308F08068808387EB8093E500E7EEF0E08081F9
S11309008F60808387E08093E60080EC8CBB8DBB96
S1130910E1E6F0E080E8808310821A8219821C826A
S11309201B8284E090E09E838D8318861F8282E080
S113093090E09A8789871C861B86BE016F5F7F4F74
S1130940C8010E943604BE016B5F7F4FC8010E943C
S11309503604BE01675F7F4FC8010E9436042C969F
S11309600FB6F894DEBF0FBECDBFDF91CF911F91BC
S11309700F910895AF92BF92CF92DF92EF92FF92C0
S11309800F931F93CF935C01C091C600C0FF13C0A7
S1130990FC0104811581C12CD12C0F2EFAEAEF2E13
S11309A0F1E0FF2EF02D20E030E0A90160E070E0DE
S11309B0CB010E94B20FC1FF13C0F5010481158160
S11309C0C12CD12C0F2EF5EEEF2EF0E0FF2EF02DE2
S11309D020E030E0A90160E070E0CB010E94B20F9A
S11309E0C2FF13C0F50106811781C12CD12C0F2E33
S11309F0FAEAEF2EF1E0FF2EF02D20E030E0A9011D
S1130A0060E070E0CB010E94B20FC3FF13C0F50198
S1130A1006811781C12CD12C0F2EF5EEEF2EF0E0BC
S1130A20FF2EF02D20E030E0A90160E070E0CB0162
S1130A300E94B20FCF911F910F91FF90EF90DF9022
S1130A40CF90BF90AF9008959093C5008093C40059
S1130A5088E98093C10086E08093C20008958AE704
S1130A6091E00E94680483E390E00E94240548E03A
S1130A706AEB74E084E191E00E94951140E050E05B
S1130A8060ED71E080E291E00E94B01180E090E0BE
S1130A9008958091C00085FFFCCF89E08093C60053
S1130AA008958091C00085FFFCCF8AE08093C60042
S1130AB008958091C00085FFFCCF86E08093C60036
S1130AC00895CF93DF9300D000D0CDB7DEB780E098
S1130AD090E018C0AC014F5F5F4F9A0122953295A8
S1130AE0307F3227207F32272F593D4F82959295B0
S1130AF0907F9827807F9827FC01EF59FD4F318321
S1130B002083CA018E3091052CF310924203109277
S1130B10410380E090E015C0AC014F5F5F4F6DE191
S1130B20649F9001659F300D112424553E4F689FAA
S1130B30F001699FF00D1124E455FE4F31832083A9
S1130B40CA018330910544F3109204021092030207
S1130B501A82198232C02DE149815A81249FC00131
S1130B60259F900D1124FC01EE54FE4FFC83EB8372
S1130B70CF010E94051220E649815A81249FC001B9
S1130B80259F900D112483559C4FEB81FC81918B03
S1130B90808B938B828B8DE391E1968B858B8DE19A
S1130BA0849FF001859FF00D1124E455FE4F1582BA
S1130BB014824F5F5F4F5A83498329813A812430DD
S1130BC031054CF2E4E4F2E01182108215821482C1
S1130BD013821282E1E6F0E080E8808310821092B2
S1130BE085001092840084E08093810081E08093EA
S1130BF06F000F900F900F900F90DF91CF91089599
S1130C00CF93DF9300D0CDB7DEB79A8389838091E9
S1130C1072019091730106960E940512892B59F472
S1130C2089819A81909373018093720161E070E0ED
S1130C3006960E9425120F900F90DF91CF91089590
S1130C400F931F93CF93DF93DC01CB01EB01E8817A
S1130C50F981C0E0D0E004C0EF010190F081E02D03
S1130C60309779F0068117812085318516964D914C
S1130C705D916D917C911997401751076207730735
S1130C805CF71196FC93EE93209721F4FC01B18359
S1130C90A08302C0B983A883DF91CF911F910F91E4
S1130CA008950F931F93CF93DF93DC01CB01EB01E6
S1130CB0E881F981C0E0D0E004C0EF010190F08147
S1130CC0E02D309779F002811381248135811296C9
S1130CD04D915D916D917C91159740175107620775
S1130CE073075CF71196FC93EE93209721F4FC01B3
S1130CF0B183A08302C0B983A883DF91CF911F91F0
S1130D000F910895DC01ED91FC911197309759F4FE
S1130D108FEF8093EC008093ED008093EE0081E0F0
S1130D2083BF8895FCCF208131812D933C93CF01E3
S1130D300895FB0120813181FC0131832083FB0173
S1130D40918380830895FB0120813181FC013183EB
S1130D502083FB01918380830895DC01ED91FC9154
S1130D601197208131812D933C93CF010895CF9326
S1130D70DF93E0917401F0917501C281D381E09118
S1130D808601F0918701309719F180917601909155
S1130D907701892BE9F0209769F086819781A085F6
S1130DA0B1854E815F8168857985841B950BA60B7F
S1130DB0B70B72F486E791E00E94AD0664E771E038
S1130DC00E94A30680917401909175010E9400060F
S1130DD0DF91CF9108951F920F920FB60F921124B5
S1130DE00F931F932F933F934F935F936F937F932F
S1130DF08F939F93AF93BF93EF93FF9380917E0163
S1130E0090917F01AC01092E000C660B770B9A01BF
S1130E1011270027409184005091850060E070E024
S1130E20402B512B622B732B4093800150938101F3
S1130E306093820170938301B09B1AC00196092EBE
S1130E40000CAA0BBB0BBC015527442780918400DE
S1130E5090918500A0E0B0E0842B952BA62BB72BB6
S1130E608093800190938101A0938201B0938301C8
S1130E70E0912002F0912102309739F060E070E0B7
S1130E80809188019091890109950E94B706FF918C
S1130E90EF91BF91AF919F918F917F916F915F91EE
S1130EA04F913F912F911F910F910F900FBE0F9073
S1130EB01F9018951F920F920FB60F9211240F9343
S1130EC01F932F933F934F935F936F937F938F93CE
S1130ED09F93AF93BF93EF93FF9380917E01909183
S1130EE07F01AC01092E000C660B770B9A011127C8
S1130EF00027409184005091850060E070E0402B11
S1130F00512B622B732B409380015093810160938A
S1130F10820170938301B09B1AC00196092E000CC4
S1130F20AA0BBB0BBC0155274427809184009091E8
S1130F308500A0E0B0E0842B952BA62BB72B8093E3
S1130F40800190938101A0938201B0938301E09189
S1130F502202F0912302309739F061E070E0809131
S1130F608A0190918B0109950E94B706FF91EF9138
S1130F70BF91AF919F918F917F916F915F914F91AD
S1130F803F912F911F910F910F900FBE0F901F90C3
S1130F9018951F920F920FB60F9211240F931F935F
S1130FA02F933F934F935F936F937F938F939F936D
S1130FB0AF93BF93EF93FF9380917E0190917F0154
S1130FC0AC01092E000C660B770B9A011127002740
S1130FD0409184005091850060E070E0402B512BDB
S1130FE0622B732B409380015093810160938201A3
S1130FF070938301B09B1AC00196092E000CAA0BB2
S1131000BB0BBC0155274427809184009091850037
S1131010A0E0B0E0842B952BA62BB72B8093800106
S113102090938101A0938201B0938301E091240203
S1131030F0912502309739F062E070E080918C01E4
S113104090918D0109950E94B706FF91EF91BF9190
S1131050AF919F918F917F916F915F914F913F914C
S11310602F911F910F910F900FBE0F901F90189505
S11310701F920F920FB60F9211240F931F932F9369
S11310803F934F935F936F937F938F939F93AF930C
S1131090BF93EF93FF9380917E0190917F01AC0108
S11310A0092E000C660B770B9A011127002740913B
S11310B084005091850060E070E0402B512B622B3E
S11310C0732B40938001509381016093820170934C
S11310D08301B09B1AC00196092E000CAA0BBB0B0E
S11310E0BC01552744278091840090918500A0E09D
S11310F0B0E0842B952BA62BB72B80938001909383
S11311008101A0938201B0938301E0912602F091C2
S11311102702309739F063E070E080918E0190915E
S11311208F0109950E94B706FF91EF91BF91AF918E
S11311309F918F917F916F915F914F913F912F91EB
S11311401F910F910F900FBE0F901F9018951F9233
S11311500F920FB60F9211240F931F932F933F9367
S11311604F935F936F937F938F939F93AF93BF93AB
S1131170EF93FF9380917E0190917F01AC01092E42
S1131180000C660B770B9A0111270027409184000D
S11311905091850060E070E0402B512B622B732B43
S11311A04093800150938101609382017093830185
S11311B0B09B1AC00196092E000CAA0BBB0BBC01F4
S11311C0552744278091840090918500A0E0B0E0E9
S11311D0842B952BA62BB72B8093800190938101B0
S11311E0A0938201B0938301E0912802F091290237
S11311F0309739F064E070E0809190019091910112
S113120009950E94B706FF91EF91BF91AF919F910D
S11312108F917F916F915F914F913F912F911F918A
S11312200F910F900FBE0F901F9018951F920F9261
S11312300FB60F9211240F931F932F933F934F9345
S11312405F936F937F938F939F93AF93BF93EF932A
S1131250FF9380917E0190917F01AC01092E000CD7
S1131260660B770B9A011127002740918400509157
S1131270850060E070E0402B512B622B732B409370
S11312808001509381016093820170938301B09B2C
S11312901AC00196092E000CAA0BBB0BBC015527E2
S11312A044278091840090918500A0E0B0E0842BD5
S11312B0952BA62BB72B8093800190938101A0934B
S11312C08201B0938301E0912A02F0912B023097BE
S11312D039F065E070E08091920190919301099555
S11312E00E94B706FF91EF91BF91AF919F918F91AB
S11312F07F916F915F914F913F912F911F910F912A
S11313000F900FBE0F901F9018951F920F920FB65B
S11313100F9211240F931F932F933F934F935F9337
S11313206F937F938F939F93AF93BF93EF93FF93A9
S113133080917E0190917F01AC01092E000C660B17
S1131340770B9A0111270027409184005091850062
S113135060E070E0402B512B622B732B4093800193
S1131360509381016093820170938301B09B1AC0F2
S11313700196092E000CAA0BBB0BBC015527442770
S11313808091840090918500A0E0B0E0842B952B9F
S1131390A62BB72B8093800190938101A0938201A7
S11313A0B0938301E0912C02F0912D02309739F033
S11313B066E070E0809194019091950109950E94F6
S11313C0B706FF91EF91BF91AF919F918F917F915C
S11313D06F915F914F913F912F911F910F910F90BA
S11313E00FBE0F901F9018951F920F920FB60F9279
S11313F011240F931F932F933F934F935F936F93F6
S11314007F938F939F93AF93BF93EF93FF938091B9
S11314107E0190917F01AC01092E000C660B770BC5
S11314209A0111270027409184005091850060E0C3
S113143070E0402B512B622B732B4093800150930F
S113144081016093820170938301B09B1AC001965D
S1131450092E000CAA0BBB0BBC0155274427809115
S1131460840090918500A0E0B0E0842B952BA62BFE
S1131470B72B8093800190938101A0938201B09354
S11314808301E0912E02F0912F02309739F067E04A
S113149070E0809196019091970109950E94B7069A
S11314A0FF91EF91BF91AF919F918F917F916F9138
S11314B05F914F913F912F911F910F910F900FBE0C
S11314C00F901F9018951F920F920FB60F92112430
S11314D00F931F932F933F934F935F936F937F9338
S11314E08F939F93AF93BF93EF93FF9380917E016C
S11314F090917F01AC01092E000C660B770B9A01C9
S113150011270027409184005091850060E070E02D
S1131510402B512B622B732B4093800150938101FC
S11315206093820170938301B09B1AC00196092EC7
S1131530000CAA0BBB0BBC015527442780918400E7
S113154090918500A0E0B0E0842B952BA62BB72BBF
S11315508093800190938101A0938201B0938301D1
S1131560E0913002F0913102309739F068E070E098
S1131570809198019091990109950E94B706FF9175
S1131580EF91BF91AF919F918F917F916F915F91F7
S11315904F913F912F911F910F910F900FBE0F907C
S11315A01F9018951F920F920FB60F9211240F934C
S11315B01F932F933F934F935F936F937F938F93D7
S11315C09F93AF93BF93EF93FF9380917E0190918C
S11315D07F01AC01092E000C660B770B9A011127D1
S11315E00027409184005091850060E070E0402B1A
S11315F0512B622B732B4093800150938101609394
S1131600820170938301B09B1AC00196092E000CCD
S1131610AA0BBB0BBC0155274427809184009091F1
S11316208500A0E0B0E0842B952BA62BB72B8093EC
S1131630800190938101A0938201B0938301E09192
S11316403202F0913302309739F069E070E0809112
S11316509A0190919B0109950E94B706FF91EF9121
S1131660BF91AF919F918F917F916F915F914F91B6
S11316703F912F911F910F910F900FBE0F901F90CC
S113168018951F920F920FB60F9211240F931F9368
S11316902F933F934F935F936F937F938F939F9376
S11316A0AF93BF93EF93FF9380917E0190917F015D
S11316B0AC01092E000C660B770B9A011127002749
S11316C0409184005091850060E070E0402B512BE4
S11316D0622B732B409380015093810160938201AC
S11316E070938301B09B1AC00196092E000CAA0BBB
S11316F0BB0BBC0155274427809184009091850041
S1131700A0E0B0E0842B952BA62BB72B809380010F
S113171090938101A0938201B0938301E0913402FC
S1131720F0913502309739F06AE070E080919C01C5
S113173090919D0109950E94B706FF91EF91BF9189
S1131740AF919F918F917F916F915F914F913F9155
S11317502F911F910F910F900FBE0F901F9018950E
S11317601F920F920FB60F9211240F931F932F9372
S11317703F934F935F936F937F938F939F93AF9315
S1131780BF93EF93FF9380917E0190917F01AC0111
S1131790092E000C660B770B9A0111270027409144
S11317A084005091850060E070E0402B512B622B47
S11317B0732B409380015093810160938201709355
S11317C08301B09B1AC00196092E000CAA0BBB0B17
S11317D0BC01552744278091840090918500A0E0A6
S11317E0B0E0842B952BA62BB72B8093800190938C
S11317F08101A0938201B0938301E0913602F091BC
S11318003702309739F06BE070E080919E0190913F
S11318109F0109950E94B706FF91EF91BF91AF9187
S11318209F918F917F916F915F914F913F912F91F4
S11318301F910F910F900FBE0F901F9018951F923C
S11318400F920FB60F9211240F931F932F933F9370
S11318504F935F936F937F938F939F93AF93BF93B4
S1131860EF93FF9380917E0190917F01AC01092E4B
S1131870000C660B770B9A01112700274091840016
S11318805091850060E070E0402B512B622B732B4C
S1131890409380015093810160938201709383018E
S11318A0B09B1AC00196092E000CAA0BBB0BBC01FD
S11318B0552744278091840090918500A0E0B0E0F2
S11318C0842B952BA62BB72B8093800190938101B9
S11318D0A0938201B0938301E0913802F091390220
S11318E0309739F06CE070E08091A0019091A101F3
S11318F009950E94B706FF91EF91BF91AF919F9117
S11319008F917F916F915F914F913F912F911F9193
S11319100F910F900FBE0F901F9018951F920F926A
S11319200FB60F9211240F931F932F933F934F934E
S11319305F936F937F938F939F93AF93BF93EF9333
S1131940FF9380917E0190917F01AC01092E000CE0
S1131950660B770B9A011127002740918400509160
S1131960850060E070E0402B512B622B732B409379
S11319708001509381016093820170938301B09B35
S11319801AC00196092E000CAA0BBB0BBC015527EB
S113199044278091840090918500A0E0B0E0842BDE
S11319A0952BA62BB72B8093800190938101A09354
S11319B08201B0938301E0913A02F0913B023097A7
S11319C039F06DE070E08091A2019091A301099536
S11319D00E94B706FF91EF91BF91AF919F918F91B4
S11319E07F916F915F914F913F912F911F910F9133
S11319F00F900FBE0F901F9018951F920F920FB665
S1131A000F9211240F931F932F933F934F935F9340
S1131A106F937F938F939F93AF93BF93EF93FF93B2
S1131A2080917E0190917F01AC01092E000C660B20
S1131A30770B9A011127002740918400509185006B
S1131A4060E070E0402B512B622B732B409380019C
S1131A50509381016093820170938301B09B1AC0FB
S1131A600196092E000CAA0BBB0BBC015527442779
S1131A708091840090918500A0E0B0E0842B952BA8
S1131A80A62BB72B8093800190938101A0938201B0
S1131A90B0938301E0913C02F0913D02309739F01C
S1131AA06EE070E08091A4019091A50109950E94D7
S1131AB0B706FF91EF91BF91AF919F918F917F9165
S1131AC06F915F914F913F912F911F910F910F90C3
S1131AD00FBE0F901F9018951F920F920FB60F9282
S1131AE011240F931F932F933F934F935F936F93FF
S1131AF07F938F939F93AF93BF93EF93FF938091C3
S1131B007E0190917F01AC01092E000C660B770BCE
S1131B109A0111270027409184005091850060E0CC
S1131B2070E0402B512B622B732B40938001509318
S1131B3081016093820170938301B09B1AC0019666
S1131B40092E000CAA0BBB0BBC015527442780911E
S1131B50840090918500A0E0B0E0842B952BA62B07
S1131B60B72B8093800190938101A0938201B0935D
S1131B708301E0913E02F0913F02309739F06FE02B
S1131B8070E08091A6019091A70109950E94B70683
S1131B90FF91EF91BF91AF919F918F917F916F9141
S1131BA05F914F913F912F911F910F910F900FBE15
S1131BB00F901F9018951F920F920FB60F92112439
S1131BC00F931F932F933F934F935F936F937F9341
S1131BD08F939F93AF93BF93EF93FF9380917E0175
S1131BE090917F01AC01092E000C660B770B9A01D2
S1131BF011270027409184005091850060E070E037
S1131C00402B512B622B732B409380015093810105
S1131C106093820170938301B09B1AC00196092ED0
S1131C20000CAA0BBB0BBC015527442780918400F0
S1131C3090918500A0E0B0E0842B952BA62BB72BC8
S1131C408093800190938101A0938201B0938301DA
S1131C50E0914002F0914102309739F060E170E088
S1131C608091A8019091A90109950E94B706FF915E
S1131C70EF91BF91AF919F918F917F916F915F9100
S1131C804F913F912F911F910F910F900FBE0F9085
S1131C901F9018951F920F920FB60F9211240F9355
S1131CA01F932F933F934F935F936F937F938F93E0
S1131CB09F93AF93BF93EF93FF9380917E01909195
S1131CC07F01AC01092E000C660B770B9A011127DA
S1131CD00027409184005091850060E070E0402B23
S1131CE0512B622B732B409380015093810160939D
S1131CF0820170938301B09B1AC00196092E000CD7
S1131D00AA0BBB0BBC0155274427809184009091FA
S1131D108500A0E0B0E0842B952BA62BB72B8093F5
S1131D20800190938101A0938201B0938301E0919B
S1131D304202F0914302309739F061E170E0809102
S1131D40AA019091AB0109950E94B706FF91EF910A
S1131D50BF91AF919F918F917F916F915F914F91BF
S1131D603F912F911F910F910F900FBE0F901F90D5
S1131D7018950E94B706789481E083BF8895FCCFBC
S1131D801F920F920FB60F9211242F933F934F93EC
S1131D905F936F937F938F939F93EF93FF938091C0
S1131DA07E0190917F01019690937F0180937E0143
S1131DB0E0918401F0918501309701F142815381D2
S1131DC06481758186179707C9F4CA01209184003C
S1131DD030918500421B530B4130510529F4809109
S1131DE084009091850001969093890080938800E7
S1131DF0EFE6F0E080818260808305C0EFE6F0E0EA
S1131E0080818D7F8083FF91EF919F918F917F914E
S1131E106F915F914F913F912F910F900FBE0F9053
S1131E201F9018951F920F920FB60F921124CF9204
S1131E30DF92EF92FF922F933F934F935F936F93B1
S1131E407F938F939F93AF93BF93EF93FF9380916F
S1131E507E0190917F016C01092E000CEE08FF08B1
S1131E607601DD24CC24409184005091850060E00B
S1131E7070E0C42AD52AE62AF72AB09B1EC06C015A
S1131E802FEFC21AD20A0D2C000CEE08FF08D6015F
S1131E9099278827C0908400D0908500E12CF12CEC
S1131EA0C82AD92AEA2AFB2A08C084E891E00E94B9
S1131EB0820666E871E00E942006E0918401F091B8
S1131EC08501309769F082819381A481B5818C1951
S1131ED09D09AE09BF09181619061A061B062CF728
S1131EE0309721F182819381A481B58120917E0173
S1131EF030917F012A173B07C9F49C01409184006B
S1131F0050918500841B950B019731F42091840036
S1131F10309185002F5F3F4F3093890020938800D4
S1131F20EFE6F0E080818260808305C0EFE6F0E0B8
S1131F3080818D7F80830E94B706FF91EF91BF91CE
S1131F40AF919F918F917F916F915F914F913F914D
S1131F502F91FF90EF90DF90CF900F900FBE0F90D6
S1131F601F9018953F924F925F926F927F928F923B
S1131F709F92AF92BF92CF92DF92EF92FF920F9314
S1131F801F93CF93DF932B013C0149015A018FB773
S1131F908078382EF89488E791E00E948206EC015C
S1131FA01B870A87FD86EC86DF86CE86332061F0A8
S1131FB0E0917201F09173010280F381E02D82813E
S1131FC09381A481B58108C08091800190918101A1
S1131FD0A0918201B0918301480E591E6A1E7B1E96
S1131FE04A825B826C827D82181419041A041B04D1
S1131FF044F00F2E88248A94982CA82CFFE7BF2E37
S1132000F02D840C951CA61CB71C8E829F82A8867A
S1132010B98620917E0130917F01C901032E000C05
S1132020AA0BBB0BDC0199278827409184005091AF
S1132030850060E070E0842B952BA62BB72BB09B1A
S113204013C0C9010196092E000CAA0BBB0BDC01BD
S113205099278827409184005091850060E070E0C2
S1132060842B952BA62BB72B481A590A6A0A7B0A8C
S11320701414150416041704ACF564E871E0CE01D9
S11320800E945106E0918401F0918501309721F17D
S113209082819381A481B58120917E0130917F0159
S11320A02A173B07C9F49C01409184005091850094
S11320B0841B950B019731F42091840030918500A5
S11320C02F5F3F4F3093890020938800EFE6F0E0C4
S11320D080818260808339C0EFE6F0E080818D7F6B
S11320E0808333C066E871E0CE010E94200633206D
S11320F061F18091760190917701892B31F1E09122
S11321008601F091870186819781A085B185E09150
S11321107401F09175010280F381E02D46815781AD
S113212060857185841B950BA60BB70B72F486E74B
S113213091E00E94AD0664E771E00E94A3068091DD
S11321407401909175010E940006332009F078947F
S1132150CE01DF91CF911F910F91FF90EF90DF900F
S1132160CF90BF90AF909F908F907F906F905F9033
S11321704F903F900895CF92DF92EF92FF920F938A
S11321801F93CF93DF93EC017B016A011FB7107893
S1132190F894A881B981109719F435C0A081B18150
S11321A01496ED91FC9115973097C1F72091720127
S11321B030917301A217B30711F0111107C0112355
S11321C009F44AC078948FEF9FEF4EC08A819B81B7
S11321D0009719F0FC01158214823B832A83F901CC
S11321E0D583C483CD010E940006E0917201F09171
S11321F0730182819381892B31F4112381F17894C5
S113220080E090E031C080917201909173019983D4
S11322108883112329F08A819B81019709F078949E
S1132220B601CE01F7010995F82E092F8FB7F8945E
S1132230198218828A819B818230910538F01B8231
S11322401A82FC01158214820E940006112351F0A7
S113225078948F2D902F08C08FEF9FEF05C080E0FA
S113226090E002C08F2D902FDF91CF911F910F919D
S1132270FF90EF90DF90CF9008950091720110913C
S1132280730186E891E00E948206EC01F8019383D1
S1132290828378946C857D854E855F858A859B8550
S11322A00E94BB108FB7F89468E771E0CE010E94DA
S11322B09906E0917401F09175010190F081E02D8F
S11322C0C281D381E0918601F09187013097A1F01A
S11322D0209799F286819781A085B1854E815F818F
S11322E068857985841B950BA60BB70B1816190600
S11322F01A061B060CF0C1CF84E791E00E94AD06DC
S113230066E771E00E94A306A0917401B091750183
S113231002C0A081B1811496ED91FC91159730977C
S1132320C1F7CD010E940006A8CFFC014231B8F4E8
S11323309FB79078F89450E0440F551FDA01A857DE
S1132340BE4FED93FC93DA01A05EBD4F6D937C9379
S113235021E030E033832283992309F078940895AF
S11323608C017B016A018FB7F8940E94610578940F
S1132370E114F10441F020E030E0A90160E070E0F4
S1132380CB010E94B20F8FB7F8940E94B90E97FB4D
S1132390072E16F4009407D077FD09D00E94E211AD
S11323A007FC05D03EF4909581959F4F0895709554
S11323B061957F4F08950E94F611B7FF0895821B1F
S11323C0930B0895AA1BBB1B51E107C0AA1FBB1F97
S11323D0A617B70710F0A61BB70B881F991F5A95AD
S11323E0A9F780959095BC01CD010895A29FB001F5
S11323F0B39FC001A39F700D811D1124911DB29F35
S1132400700D811D1124911D0895DC012D923D92C2
S11324104D925D926D927D928D929D92AD92BD9200
S1132420CD92DD92ED92FD920D931D93CD93DD93AC
S1132430FF91EF918DB78D938EB78D938FB78D9359
S1132440ED93FD93882799270994DC01CB01813012
S11324509105811D2D903D904D905D906D907D90E6
S11324608D909D90AD90BD90CD90DD90ED90FD90C0
S11324700D911D91CD91DD91ED91FD910D90F8940B
S1132480FEBF0FBEEDBFED91FD910994F894FFCF0F
S113249051151801111E111B500B411B411F0940FE
S11324A0511F511B00000000460132017A01200136
S11324B00000000068014601320146015A01000093
S11324C0000000000000000000000100000068019E
S11324D05A017A0100000000000000000000000022
S11324E0000068015A017A010000000000000000A9
S11324F000000100000001000000000000000500D1
S10D25007A0144024402AC016102B6
S9030000FC
